S01800006275696C642F6D6963617A2F6D61696E2E73726563E5
S11300000C9460010C949C1A0C94A61A0C94B01ACB
S11300100C94BA1A0C94C41A0C94CE1A0C94D81AD0
S11300200C94131B0C947F010C947F010C944219C3
S11300300C949D180C942C190C947F1A0C94301861
S11300400C9475180C941D1B0C94821B0C947F014A
S11300500C94E91B0C947F010C947F010C947F0198
S11300600C9437190C94341D0C94131D0C941E1D00
S11300700C94291D0C94471D0C94F61C0C947F01C0
S11300800C94081D0C947F010C947F013C105A10B1
S113009062107C108110C310C7100E1127112C118F
S11300A05D110D1226123B1246146F14CA14EC147F
S11300B0AE15C115C515C815D01500002110422074
S11300C063308440A550C660E770088129914AA135
S11300D06BB18CC1ADD1CEE1EFF1311210027332AC
S11300E05222B5529442F772D662399318837BB385
S11300F05AA3BDD39CC3FFF3DEE36224433420043C
S11301000114E664C774A44485546AA54BB52885D4
S11301100995EEE5CFF5ACC58DD55336722611168B
S11301203006D776F6669556B4465BB77AA7199724
S11301303887DFF7FEE79DD7BCC7C448E558866813
S1130140A7784008611802282338CCC9EDD98EE974
S1130150AFF9488969990AA92BB9F55AD44AB77AEB
S1130160966A711A500A333A122AFDDBDCCBBFFBC4
S11301709EEB799B588B3BBB1AABA66C877CE44CFB
S1130180C55C222C033C600C411CAEED8FFDECCD14
S1130190CDDD2AAD0BBD688D499D977EB66ED55ECB
S11301A0F44E133E322E511E700E9FFFBEEFDDDF64
S11301B0FCCF1BBF3AAF599F788F8891A981CAB1F0
S11301C0EBA10CD12DC14EF16FE18010A100C23022
S11301D0E3200450254046706760B9839893FBA3DD
S11301E0DAB33DC31CD37FE35EF3B1029012F32272
S11301F0D2323542145277625672EAB5CBA5A8952D
S113020089856EF54FE52CD50DC5E234C324A014C1
S113021081046674476424540544DBA7FAB79987BC
S1130220B8975FE77EF71DC73CD7D326F236910611
S1130230B01657667676154634564CD96DC90EF904
S11302402FE9C899E9898AB9ABA944586548067861
S11302502768C018E1088238A3287DCB5CDB3FEB1C
S11302601EFBF98BD89BBBAB9ABB754A545A376AB1
S1130270167AF10AD01AB32A923A2EFD0FED6CDDEC
S11302804DCDAABD8BADE89DC98D267C076C645C01
S1130290454CA23C832CE01CC10C1FEF3EFF5DCFFC
S11302A07CDF9BAFBABFD98FF89F176E367E554E51
S11302B0745E932EB23ED10EF01E00081C1814106A
S11302C011241FBECFEFD0E1DEBFCDBF11E0A0E00F
S11302D0B1E0E0ECFEE300E00BBF02C007900D923A
S11302E0AC31B107D9F713E0ACE1B1E001C01D9224
S11302F0A336B107E1F70E9410160C945E1F0C940C
S1130300000086B70895282F9FB7F89481E03091B4
S1130310C202321380E09FBF08954FB7F894209132
S1130320E4013091E5018CB59DB556B752FF04C088
S11303302F5F3F4F8CB59DB54FBF40E050E0A90102
S113034033272227A0E0B0E0282B392B4A2B5B2B44
S1130350B901CA0108959FB7F89481E03091D8019A
S11303602091D901321380E09FBF0895362F272FA3
S1130370FC014383528361837083BA01832F922FDC
S11303800895FC01918180E0208130E0282B392BF5
S1130390C90108959FB7F8948093C2029FBF08953E
S11303A080910601882339F481E0909123019230F1
S11303B019F080E0089580E00895C0980895B89AEF
S11303C008958FB7F8941092C1028FBF08959FB714
S11303D0F89481E02091C102211180E09FBF08952B
S11303E05F926F927F928F929F92AF92BF92CF92C1
S11303F0DF92EF92FF920F931F935FB6F894A09051
S11304009B01B0909C01C0909D01D0909E019501EC
S1130410A60160E070E080E090E0FEE4AF2EE3E847
S1130420BE2ECC24DD24EE24FF2400E010E00E9444
S1130430641D39014A0100E20E942E1E59016A011D
S1130440A401930156954795379527952A0D3B1D91
S11304504C1D5D1D57FF05C05F772F5F3F4F4F4F0A
S11304605F4F20939B0130939C0140939D015093D7
S11304709E015FBEC9011F910F91FF90EF90DF9025
S1130480CF90BF90AF909F908F907F906F905F9030
S11304900895FC01218130E0908180E0282B392BE4
S11304A0C9010895882311F06E9A08956E980895ED
S11304B0C09A089587B78F7E87BF0895DE9A0895FE
S11304C0DE98089589B78F7B89BF089587B78F7D9C
S11304D087BF0895DF93CF93CDB7DEB728970FB6C4
S11304E0F894DEBF0FBECDBF20E032E14DE65CE400
S11304F06FE470E0809101019091000128960FB69D
S1130500F894DEBF0FBECDBFCF91DF910895109256
S1130510D3021092D20284E080937D01109287026C
S11305201092DB02109295011092E7011092E601FD
S11305300895809135038F3F89F0282F30E0F90129
S1130540E65AFE4F9081909335039F3F11F49093A8
S11305505D03265A3E4F9FEFF9019083089583B7B8
S113056083BF00B600FCFDCF0895FC01238130E079
S113057040E050E0808190E0A0E0B0E0B82FAA27EE
S113058099278827282B392B4A2B5B2B618170E014
S113059080E090E0CB0177276627262B372B482B6A
S11305A0592B828190E0A0E0B0E0BA2FA92F982FB8
S11305B08827282B392B4A2B5B2BB901CA010895B4
S11305C081E0849B80E00895882311F06F9A089558
S11305D06F9808959FB7F8948CB95E9A9FBF089559
S11305E09FB7F894E82FF0E0E65AFE4F20812F3FA2
S11305F049F421E030E040915D03481729F020E000
S113060030E002C021E030E02115310589F4209169
S113061035032F3F19F48093350306C0E0915D0341
S1130620F0E0E65AFE4F808380935D0380E001C0D2
S113063085E09FBF089590913601992399F5882309
S113064089F581E08093360180910D018093370113
S113065020912B01217020935801809112019091D7
S11306601301909339018093380180912C01809378
S11306703A0131E0211130E020912B01267EE32F55
S1130680F0E0EE0FFF1FE25FFE4F808191819093B7
S1130690130180931201232B20932B0186E10E94E6
S11306A0F002089580912B0180FF02C08B7F01C06E
S11306B08D7F80932B0108950F931F931FB7F89498
S11306C002B70E9481012091410130914201409181
S11306D043015091440181FF0FC091B782B72F5F4E
S11306E03F4F4F4F5F4F290F311D411D511D280FA3
S11306F0311D411D511D04C0200F311D411D511DCF
S11307001FBFB901CA011F910F910895DF92EF92A3
S1130710FF920F931F93D82E7A018B010E945C03E2
S11307204D2D50E09A01E3E0220F331FEA95E1F7E3
S1130730240F351FF901E551FE4F608371838283D5
S11307409383E482F58206831783F901ED50FE4F0B
S113075080818E7F826080838FE00E94F0021F91EF
S11307600F91FF90EF90DF900895EF92FF920F9317
S11307701F930E948D017B018C012091BD0130915A
S1130780BE014091BF015091C0018091B701909189
S1130790B801A091B901B091BA01820F931FA41FAF
S11307A0B51FE216F3060407150730F08217930706
S11307B0A407B50758F005C082179307A407B50727
S11307C090F5E816F9060A071B0768F59C01AD01C8
S11307D02E193F09400B510B213060E8360760E0C9
S11307E0460760E0560710F1D801C70180509048D1
S11307F0AF4FBF4F8093BD019093BE01A093BF0143
S1130800B093C00120503048404050402093B7017D
S11308103093B8014093B9015093BA0120E030E815
S113082040E050E013C020E030E0A9018093BD0116
S11308309093BE01A093BF01B093C0011092B70181
S11308401092B8011092B9011092BA018CB59DB5FD
S11308500396AC014E195F094217530718F4C901F6
S11308608E0D9F1D009711F481E090E001979BBDD0
S11308708ABD80E186BF87B7806187BF1F910F91D2
S1130880FF90EF900895DF92EF92FF920F931F93E2
S11308907B018C010E948D01DFB6F8946093BD0149
S11308A07093BE018093BF019093C001E092B701A1
S11308B0F092B8010093B9011093BA010E94B503F4
S11308C0DFBE1F910F91FF90EF90DF90089580910C
S11308D083028A3021F480917D01843021F081E00B
S11308E080932A01089583E10E94F00210922A0164
S11308F008951F931FB7F89480915903882341F4F6
S113090081E10E94F002882319F481E08093590365
S11309101FBF1F910895EF92FF92CF93DF93E82EAC
S1130920E7017E01F92EE701C70101960E94C1018A
S1130930E92FE695E695F0E0E370F070EE0FFF1F07
S1130940EC5EFE4F20813181892F829586958695B4
S1130950837090E08430910540F4FC01EE0FFF1F9A
S1130960EC5EFE4F8081918102C08CE99FEF280FDD
S1130970391F2A5F3F4F2C0F3D1FC901DF91CF91D3
S1130980FF90EF90089580E00E945202BA9ABB98BB
S1130990B99A0E94DF016C9A80E00E94E4026B988D
S11309A06A9881E00E945202709A8DB18C7F8DB951
S11309B008951F93182F81E00E9452021FB9779B5C
S11309C0FECF8FB11F910895EF92FF920F931F9363
S11309D0182F062FE72EFFB6F8940E94E70188230C
S11309E019F0FFBE80E00AC0FFBE812F0E94D90427
S11309F08E2D0E94D904802F0E94D9041F910F913B
S1130A00FF90EF900895CF92DF92EF92FF920F93B1
S1130A101F93CF93DF934FB7F89400915503109130
S1130A205603E0908002F0908102C091E001D091E1
S1130A30E10120913E0130913F01CE010A96281731
S1130A40390708F4C9014FBF6C010894C108D108E3
S1130A5013C00115110529F0F801EC0FFD1F808169
S1130A6001C080E00E94D904E114F10421F0F701EF
S1130A70EC0FFD1F80832196CC15DD0550F381E03A
S1130A800E94E4028FB7F8940115110531F0F801C2
S1130A90EC0FFD1F90819FB901C01FB8D093E101F5
S1130AA0C093E0018FBF80E0DF91CF911F910F9140
S1130AB0FF90EF90DF90CF9008952FB7F894509364
S1130AC03F0140933E0190935603809355037093E6
S1130AD08102609380021092E1011092E0012FBF25
S1130AE04115510521F08FB10E94030508958BE053
S1130AF00E94F00280E008950F931F93CF93DF9339
S1130B00EC01062F1FB7F8940E94E701882319F01F
S1130B101FBF10E012C01FBF8FE790E09093CC017D
S1130B208093CB018FE70E94D904182F80E090E0D6
S1130B30BE01402F50E00E945D05812FDF91CF91CF
S1130B401F910F9108950F931F93CF93DF93C0913B
S1130B509901D0919A011AA5112309F41FE10E9469
S1130B60DD0180917601811739F0612F70E0606EAC
S1130B70706885E10E94E4041093760108811FB730
S1130B80F8940E94E701882311F01FBF12C01FBF11
S1130B908EE390E09093CC018093CB018EE30E948E
S1130BA0D904402F4150CE0160E070E050E00E9433
S1130BB05D05DF91CF911F910F9108958FB7F89440
S1130BC01092C3028FBF0895DF92EF92FF920F93AA
S1130BD01F93D82E7A018B010E945C034D2D50E0A7
S1130BE09A01E3E0220F331FEA95E1F7240F351F42
S1130BF0F901E551FE4F6083718382839383E4821C
S1130C00F58206831783F901ED50FE4F80818360DE
S1130C1080838FE00E94F0021F910F91FF90EF906C
S1130C20DF900895CF92DF92EF92FF920F931F937C
S1130C301FB7F89401B7C2B60E9481010C1511F0D8
S1130C4081FF02C01FBF6BC08091D7018823D1F1FF
S1130C500E945C032091BD023091BE024091BF020C
S1130C605091C002C0905301D0905401E0905501BE
S1130C70F0905601621B730B840B950B6C157D056C
S1130C808E059F0528F01092D70186EE61E01EC004
S1130C90D701C601820F931FA41FB51F20914101E4
S1130CA0309142014091430150914401821B930BC6
S1130CB0A40BB50B873E9105A105B10518F482304C
S1130CC020F402C086EE01C082E060E0782F71500B
S1130CD000B601FCFDCF92B7791709F4782F809103
S1130CE0410190914201A0914301B09144019C01C2
S1130CF0AD012F5F3F4F4F4F5F4F270F311D411DF8
S1130D00511D281739074A075B0710F4782F70958F
S1130D1071BF1FBF662319F08EE00E94F0021F917D
S1130D200F91FF90EF90DF90CF9008950F93209351
S1130D30DC023093DD024093DE025093DF02009325
S1130D407501EFB7F894F1E0F093D7016093BD0219
S1130D507093BE028093BF029093C002209353010C
S1130D60309354014093550150935601EFBF0E94B4
S1130D7012060F91089580912201882309F052C030
S1130D80809103018F3F09F04DC00E94E701882341
S1130D9009F448C081E08093D002809159018823EE
S1130DA011F01092D0028091D0028823E9F10E94C0
S1130DB0D001882311F00E945802809123018230CF
S1130DC049F580910601882329F5209104012F3FDC
S1130DD0E9F08FEF80930601822F90E0FC01E55447
S1130DE0FE4F3081309304013F3F11F430930501ED
S1130DF085549E4F3FEFFC0130832093790181E0BD
S1130E00809323018CE00E94F00204C02093060129
S1130E101092230180912301882341F40E945202FD
S1130E2080E0089581E0089585E0089580E00895C4
S1130E301F931FB7F89490910301981719F01FBFDF
S1130E4081E033C08FEF80930301E0912201EE2310
S1130E5029F080E0F5E02E2F30E005C00E94E1018A
S1130E600E94BB061CC06F2F0E949F1EA901092E61
S1130E7002C0559547950A94E2F740FF13C090933A
S1130E80030121E030E002C0220F331F9A95E2F7FC
S1130E9020952E23209322018AE00E94F0021FBF96
S1130EA080E003C0892F8F5FDECF1F91089584E017
S1130EB00E941807089583E00E94180780E00895AF
S1130EC00E94DD0180913C0190913D0161E00E940E
S1130ED07C05089580E88093570110927C0110925C
S1130EE03903109234031092780108950F931F93DD
S1130EF0082F1FB7F8940E94E701882319F01FBF39
S1130F0080E004C01FBF802F0E94D9041F910F915D
S1130F10089589E00E9476070895FC0115A68E962F
S1130F2040E050E060E070E80E94B60108951F932D
S1130F301FB7F8940E94F00166E470E00E94AB1EB3
S1130F400B9690935B0380935A03BC0180E090E07E
S1130F500E9443041FBF1F9108958FB7F8946091B6
S1130F60CF028FBF85E0689FB0011124625D7E4F80
S1130F70706488E10E94E40408951F931FB7F894F5
S1130F8080917701882331F061E070E0809154030F
S1130F90882311F460E070E0762F6627770F770FCF
S1130FA0770F80919801882331F081E090E02091BF
S1130FB0C602222311F480E090E0626E7262F4E0D3
S1130FC0880F991FFA95E1F7682B792B81E10E942C
S1130FD0E4041FBF1F910895CF92DF92EF92FF9216
S1130FE00F931F93DF93CF930F92CDB7DEB76C01AE
S1130FF08A01F22EEFB6F89469830E94E7016981B1
S1131000882319F0EFBE80E01DC0EFBEC60ED11CD0
S11310108C2D80680E94D904E82EC6019695879588
S1131020807C0E94D904CF2CDD2409C0F601EF197D
S1131030F109E00FF11F80810E94D904FA94FF2086
S1131040A9F78E2D0F90CF91DF911F910F91FF90F3
S1131050EF90DF90CF900895DF93CF93CDB7DEB7B5
S11310602C970FB6F894DEBF0FBECDBF9FB7F89490
S1131070DE011196E7ECF2E088E001900D928150D8
S1131080E1F7209196018091970129878A87209121
S1131090C1018091C2012B878C879FBF80E691E0BC
S11310A060E0AE014F5F5F4F2CE00E94EC072C968E
S11310B00FB6F894DEBF0FBECDBFCF91DF91089578
S11310C0DF93CF930F92CDB7DEB789830E94660278
S11310D090E296BF8981882319F08EB5806402C09E
S11310E08EB58F7B8EBD87B7806287BF80E00F90FF
S11310F0CF91DF91089581E00E9460080895EAEBA2
S1131100F0E06927660FF11DE60FF11DC895382F31
S1131110202D3196C8953025C90108950F931F934A
S1131120082F162F80917D01813079F0813038F0BD
S1131130823009F441C0833009F00DC14EC0002350
S113114009F422C10E9487021CC1002309F01CC1BA
S11311508091E6019091E7010E947F089093E70156
S11311608093E60182E080937D011093DB021434C6
S113117009F0F1C080912B01982F917080FF03C07A
S11311808695869501C08695817009F0E4C08091AA
S11311902B01992311F0846001C0826080932B019C
S11311A080912B01877E886080932B0110922C0103
S11311B08FEF80930D01E8C0002309F0CCC0609349
S11311C095018091E6019091E7010E947F08909338
S11311D0E7018093E60183E0D5C0809187028F3FC9
S11311E009F4B9C0002309F452C0823008F4B3C032
S11311F0E091D202EE2311F0E15001C0E2E0AE2F03
S1131200B0E0AE52BD4F12968C911297382F20E069
S1131210EE2311F0E15001C0E2E0F0E0EE52FD4FA8
S1131220428150E0422B532B2091E6013091E7019B
S11312304217530709F08FC080E00E941B032091DE
S11312409501E091D8013091D9018E2F8F5F8630BE
S113125010F4982F01C090E0931761F0F0E0E85289
S1131260FE4F22838093D801863010F01092D8016B
S11312700E9479040E94870280913B018D7F8093B4
S11312803B0180912A01882309F47EC072C0823018
S113129008F44DC0E091D302F0E0EE52FD4F2281FC
S11312A030912B01932F9695969596959370892F4F
S11312B090E08130910521F08230910501F50FC055
S11312C0832F877E806180932B01222311F080E09D
S11312D001C085E080932C0120930D0110C0809102
S11312E02C01843360F4E0911201F0911301E80FB2
S11312F0F11D208380912C018F5F80932C018091BC
S1131300E6019091E7012091D302E22FF0E0EE5242
S1131310FD4F62812F5F2093D302233010F010928F
S1131320D3020E947F089093E7018093E6018091A5
S1131330D202E82FF0E0EE52FD4F12838F5F8093CC
S1131340D202833010F01092D202809187028F5F14
S11313508093870219C00E94870280913B018D7F90
S113136080933B0181E00E941B0380912A01882322
S113137031F084E080937D010E94670405C000235E
S113138019F081E080937D011F910F9108959FB71B
S1131390F89480931E019FBF86E00E94F002089596
S11313A01F93182F21E030E030932501209324016E
S11313B0109259010E94BB06812F0E94C7091F91F8
S11313C008950F931F931FB7F8948091240190916F
S11313D025018830910589F40E9489070E945B07E2
S11313E00E94580281E090E09093250180932401AB
S11313F083E00E94C7091FBF2FC00E94DD018091B6
S11314005E03882311F085E001C084E00E94760722
S113141083FD05C080E00E94760783FD04C001E0DF
S113142083E090E003C000E085E090E09093250124
S1131430809324010E9458021FBF002339F01092A8
S113144040010E945B070E94970706C060E471E0B8
S113145080E090E00E9443041F910F9108958AE870
S113146092E00E94C101806280938A0290938B0271
S113147080E008958091C9019091CA010097F9F420
S113148021E030E03093DA022093D90284E791E03E
S11314909093CA018093C90110927F0110927E013A
S11314A081E0809380015E9A569A80917401309312
S11314B07F0120937E010E94EA0280E0089585E086
S11314C008959FB7F89480913B018E7F80933B01F0
S11314D08EE7809374019FBF0E943A0A0895982F63
S11314E09D57923050F490913B01916090933B0151
S11314F090E29827909384028DE7809374010E9470
S11315003A0A08959FB7F894E82FF0E0EF53FD4F9F
S11315108081882321F481E0808380E001C081E020
S11315209FBF08951F938FB7F894909183029A30C8
S113153039F090917D01943019F08FBF19E005C006
S11315408FBF82E10E94F00210E081E00E94820AD3
S11315508823D1F48FB7F89420911F013091200192
S11315602115310511F08FBF19C021E030E030930F
S1131570200120931F018FBFDD9A64E170E080E0B9
S113158090E00E9443040AC082E00E948301882301
S113159039F481E00E948301882321F080E003C0B4
S11315A089E001C085E0181311E0812F1F9108958F
S11315B081E04CED55E060E070E00E948603089500
S11315C00F931F93182F0FB7F89480E00E94820A9C
S11315D08823E1F5109303010E94D001882311F0C0
S11315E08AE010C080912301882311F40E94C3046F
S11315F080912301882349F481E080932301109290
S113160079018CE00E94F0022DC08091BB018F3FD4
S113161049F481E090E020910501222329F080E043
S113162090E002C081E090E00097E1F48091040131
S11316308F3F19F41092040106C0E0910501F0E017
S1131640E554FE4F1082109205010CC021E030E0F9
S113165002C0220F331F1A95E2F780912201822BD8
S1131660809322010FBF80E01F910F9108950F9383
S11316701F93082F1FB7F89480E00E94820A8823E2
S113168019F01FBF85E01BC00E94D001882379F4A4
S113169080912301882379F482E0809323011092BE
S11316A006010E94C3040E94DF010E94DD01009331
S11316B0030180E003C00E94E10181E01FBF1F918C
S11316C00F91089582E090E09093720180937101EC
S11316D081E080937C0180910301843029F084E0CF
S11316E00E94370B882319F40E946007089584E050
S11316F00E94E00A08951F931FB7F8948091710126
S1131700909172010097D1F010927C018091780140
S1131710882311F0B79904C00E9908C0882319F0E2
S11317208150809378010E94620B0AC081E090E0AE
S11317309093720180937101109278010E9457076F
S11317401FBF1F9108950E946A070E9458020E94B9
S1131750DD0188E00E94760788E00E9476070E94F7
S113176058020E9457070E947B0B0895EF92FF9244
S11317700F931F93CF93DF938C018091CB0186FF4E
S113178051C18F7B8F3309F090C1C0913C01D0913E
S11317903D014881409373018091710190917201E0
S11317A08530910509F444C08630910509F492C04E
S11317B08230910509F02FC185E090E09093720189
S11317C08093710150915701242F30E0852F90E0D0
S11317D02817390754F5B79907C00E9905C0842F07
S11317E08095850F809357014A32F8F44423B1F071
S11317F0BE016F5F7F4F483028F080E090E047E003
S113180050E009C086E090E09093720180937101EA
S113181080E090E050E00E945D0547C110927C0199
S11318200E9458020E945707F3C00E94A30B3DC1B7
S113183086E090E090937201809371018091980109
S1131840882309F440C08091C6028823E1F58E0103
S11318500F5F1F4FC8010E94C10185FF34C036E0ED
S1131860E32EF12CEC0EFD1EC7010E94C1014FB7FF
S1131870F8942091C1013091C2014FBF82179307A0
S113188039F0C7010E94C1012FEF8F3F9207D9F4AD
S1131890C8010E94C101877090708130910599F44C
S11318A00E9458020E94DD018AE00E9476070E948D
S11318B058020E94DD01609173016750CE010896C1
S11318C00E947C05F2C0BE01685F7F4F40917301A6
S11318D047509ECF0E94580280917801882311F4CA
S11318E00E94570780917801882311F0B7990AC0A4
S11318F00E9B08C080913403882321F090917301DA
S11319009B3038F480913C0190913D010E948D07F9
S11319102FC08130A1F480913C0190913D01E09170
S11319203903F0E0EE0FFF1FEE0FFF1FE052FD4FF3
S113193040815181628173818E960E94B6018091AB
S1131940390390E0019687709070809339038091F9
S11319503403815080933403882351F080913C01F7
S113196090913D010E948D07109239031092340327
S113197080917301FE01E80FF11D808187FF48C04B
S11319800115110509F444C0CE0101960E94C1015C
S1131990877030913C0120913D01823099F5E091AE
S11319A09901F0919A01309799F1809124019091D5
S11319B025018730910561F5832FEC017E01F22E1C
S11319C0E70193818B81981719F50E945A02A0911F
S11319D09901B0919A019D01285D3F4F888191E062
S11319E0F9019483C80FD11DCE010197FC018081B8
S11319F098968C9388818F77F901818380E00E9487
S1131A00D00906C0813021F48DE00E94F0024DC05F
S1131A100E947B0B4AC010927C010E9458020E94D3
S1131A20570743C08E3309F040C00E94580280918A
S1131A302401909125018830910591F40E94DD01E3
S1131A400E9489070E9458020E945B0781E090E08F
S1131A50909325018093240183E00E94C70925C047
S1131A6080915E03882349F484E090E090932501FB
S1131A70809324010E94E10918C00E945B0783E05F
S1131A8090E090932501809324010E94F00166E385
S1131A9071E00E94AB1E0B9690935201809351010A
S1131AA0BC0180E090E00E944304DF91CF911F913C
S1131AB00F91FF90EF9008951F9383E00E94370BDE
S1131AC0182F882319F083E00E94E00A812F1F91C8
S1131AD00895EF92FF920F931F93CF93DF93EC013E
S1131AE00FB7F8940E948B042FE3FC0120830FBFEF
S1131AF010923C0310923B0382E00E94820A8823E6
S1131B0009F066C08091D102982F9F5F9093D10213
S1131B108B83EFB6F89482E00E948301882329F432
S1131B20EFBE0E94DE0581E056C08E01085D1F4FA6
S1131B3084E00E94CA01D093D601C093D501EFBEC0
S1131B407E010894E11CF11CC7010E94C10180724E
S1131B509C7C89839A83C7010E94C1018164898323
S1131B609A83F801148218A61182CE018E9640E061
S1131B7050E060E070E80E94B60151E05093C50265
S1131B802091D5013091D6014FB7F894809124016A
S1131B90909125018830910519F08130910511F05B
S1131BA04FBF18C082E090E09093250180932401F8
S1131BB050935E0330939A0120939901109240014F
S1131BC04FBF0E945C0D882329F40E94A30502C024
S1131BD085E001C080E0DF91CF911F910F91FF90CC
S1131BE0EF900895EF92FF920F931F93DF93CF939B
S1131BF000D00F92CDB7DEB72D3108F04EC08A0168
S1131C00FA018387668377833FB7F89490919601AE
S1131C10809197013FBF948385833FB7F894909157
S1131C200701809108013FBF90878187CA0101960F
S1131C3029834A835B830E94C101BC016064786884
S1131C40F801618372832981822F835F808380916D
S1131C500A014A815B81882341F010920A01CA017A
S1131C600E94690D882389F41BC02093D30110922C
S1131C70D401409328015093290180E10E94F0028D
S1131C8080910A01882359F004C09FEF90930A01C0
S1131C9007C010929F0180E003C082E001C089E088
S1131CA00F900F900F90CF91DF911F910F91FF90A4
S1131CB0EF900895CF93DF93E82FF0E0EE0FFF1F2E
S1131CC0EE51FE4F1182108210920201C091E20186
S1131CD0D091E301209721F080913A0380FF03C063
S1131CE081E08093020180910201882381F4CE0176
S1131CF006960E94C101BC0128812D508B85AE013E
S1131D000E94F20D882319F083E00E94F002DF9113
S1131D10CF91089520910201222351F42091E201F0
S1131D203091E3012817390719F480E00E945A0E14
S1131D300895FF920F931F93DF93CF9300D0CDB7F5
S1131D40DEB7F82E092F162F49E852E0CA0106968D
S1131D50F0928F02FC01018326E0209394022091EB
S1131D60E2013091E3012115310519F55093E301A6
S1131D704093E201262F235F2093890220910201E0
S1131D802223C9F049835A830E94C101BC011092E5
S1131D90020186E049815A81212F0E94F20D882395
S1131DA059F091E0909302011092E3011092E20144
S1131DB003C085E001C080E01D3108F050C029E86F
S1131DC032E0F9013596F18200938E0299E8968308
S1131DD0148340912F01509130014115510509F0B0
S1131DE040C09FB7F89445E040933201109233010C
S1131DF030932E0120932D0122E030E03093300106
S1131E0020932F011092350110923401145F109326
S1131E1031019FBF9FB7F894209183022A3011F4B7
S1131E209FBF17C09FBF2FB7F8949091D1019923FA
S1131E3031F491E09093D1011092D20101C090E06D
S1131E402FBF992331F089830E94790490E089811E
S1131E5009C01092300110922F0191E003C092E06A
S1131E6001C095E0891381E00F900F90CF91DF912D
S1131E701F910F91FF9008958093960210929502FE
S1131E808FEF9FEF62E00E94990E08957F928F92E8
S1131E909F92AF92BF92CF92DF92EF92FF920F93F5
S1131EA01F93CF93DF934B015C01CBEED1E060E055
S1131EB070E0FB01A3E0EE0FFF1FAA95E1F7E60F28
S1131EC0F71F5BEEC52E51E0D52ECE0EDF1ED601D8
S1131ED018967C90189771FE96C088819981AA8182
S1131EE0BB81EC80FD800E811F81A5019401281B1C
S1131EF0390B4A0B5B0B2E153F054007510708F4BD
S1131F0082C070FE06C0ED50FE4F80818D7F8083BD
S1131F1009C08E0D9F1DA01FB11FF6018083918300
S1131F20A283B383623081F0633020F4613009F01E
S1131F3071C006C0633061F0643009F06BC010C03A
S1131F4080E00E94F00266C081E00E943C0F62C003
S1131F5084E04AE050E060E070E00E94E4055AC08A
S1131F600E94F001682F792F2AE030E004C0CB01F1
S1131F70B9010E94BF1E6B307105CCF7CB010197EC
S1131F808330910568F0CB0104978330910558F0B4
S1131F90675070406330710548F0C3E0D0E008C07A
S1131FA0C0E0D0E005C0C1E0D0E002C0C2E0D0E0B3
S1131FB082E08093950290910001809101010AEAE8
S1131FC012E0D80111969C938093AA020E94F0011A
S1131FD0F80183839093AC020E94F001D801159616
S1131FE08C939093AE02C093B0020E942F0AE091AA
S1131FF00001F0910101EE53FE4F808190E06CE10D
S11320000E94990E07C06F5F7F4F29966530710556
S113201009F04FCF8FE00E94F002DF91CF911F9122
S11320200F91FF90EF90DF90CF90BF90AF909F9073
S11320308F907F9008959F92AF92BF92CF92DF923C
S1132040EF92FF920F931F93DF93CF93CDB7DEB739
S1132050A9970FB6F894DEBF0FBECDBFE82FF0E00E
S1132060E731F10508F0BBC5EA5BFF4FEE0FFF1F38
S11320700590F491E02D099481E08093950290916C
S11320800001809101019093AB028093AA02E1E8E0
S1132090F1E080E090E021910196DC01AB56BD4F68
S11320A02C9384319105B9F78FEF9FEF6CE10E9477
S11320B0990E95C583E048EB5BE060E070E00E9418
S11320C086038DC580913A03882309F488C5E2EE1E
S11320D0F1E091E0282F292329F011821082292F81
S11320E020958223329621E0E23FF20719F480938F
S11320F03A0375C5990FEECF809102010E945A0EE2
S11321006EC5EFB6F8940E947B0801E010E01093CE
S11321102501009324011092260110925901109276
S11321207601EFBEEFB6F8940E946A07109372012D
S11321300093710110927C010E94620280E488BFC6
S11321408AB780628ABF8AB78F7E8ABF89B7806464
S113215089BFEFBE1FB7F89480911F0190912001B1
S11321608430910519F483E00E9476071FBF1FB7DE
S1132170F8940E94580280E00E9418071FBF82E072
S11321800E94CA01FBC480E00E94CA0128C58FB71F
S1132190F8948FBF83E00E948301882351F11FB715
S11321A0F89410922501109224010E945A020E9470
S11321B0660283E00E9418070E9458021FBF1FB7DF
S11321C0F89410927201109271010E946A070E94A1
S11321D058020E9462021FBF1092200110921F0138
S11321E00E946002DD980E945E0285E00E94F00277
S11321F003C082E00E94CA010091D5011091D6016A
S11322000E94DE0580913B0390913C03009709F006
S1132210E6C48FEF80930A01C801D7C31FB7F894AF
S113222080915C03882389F481E080935C0380912E
S11322301F01909120018430910521F481E00E94D6
S1132240E00A03C088E00E94F0021FBFC8C48FB731
S1132250F89410925C03A2C48FB7F8949091210172
S1132260992309F09BC48FBF01E0869B00E0809115
S1132270C7019091C8019817E1F00817D1F484E0E0
S113228090E09093200180931F018FB7F89491E020
S1132290909321018FBF8DE160E070E00E94E4041F
S11322A00E942C080E9458020E94DD0184E00E94D2
S11322B0F0020093C80189E065C49FB7F894809147
S11322C003019FBF823009F462C0833030F4882355
S11322D059F0813009F083C441C0833009F471C0DE
S11322E0843009F07CC496C00E94DD010FB7F894D5
S11322F080911F01909120018230910509F00EC454
S113230083E090E09093200180931F018DE168E1C8
S113231070E00E94E40481E08093C70110922101DF
S1132320869B80E08093C80189E00E94F00281E0EE
S11323300E9476078CE16FE772E00E94E4040E9439
S1132340AD070E94BD0787E166E57AE20E94E404D6
S113235085E16FEF70E80E94E404E0C30E94DD01B0
S113236086E00E9476070E94AD070E94BD070E9486
S11323702C080E9458020E94DD0183E00E94760727
S11323800E94580281E00E94180788E0FBC30E9463
S1132390DD011FB7F8940E94E701882311F01FBFE5
S11323A00AC01FBF83E50E94D90480E00E94D904BB
S11323B080E00E94D9040E94580282E00E9418071B
S11323C00EC49FB7F894809124019FBF843039F0E4
S11323D0883041F08230D9F40E94A30500C40E94E1
S11323E0E109FDC30E94DD010E9489070E94580291
S11323F00E945B072FB7F89481E090E09093250149
S1132400809324012FBF83E00E94C709E8C30E9480
S11324105B07E5C30E946007E2C30FB7F89480919D
S11324208002909181021092810210928002109297
S113243056031092550310923F0110923E011092E0
S1132440E1011092E0010E94B60B68C38FB7F894C3
S1132450909179019093060192E0909323018FBFAC
S113246080910601882309F0BAC30E94DF010E940B
S1132470DD018AE087C3E0913C01F0913D01CF0189
S11324808896E080AF014E0D511DDA012C91221F78
S11324902227221FDC0113962C93DA012C912F772B
S11324A0DC0111962C93DA0111978C9180A700918D
S11324B03C0110913D01C80101960E94C101292FE0
S11324C09FB7F894809177019FBF882309F468C06F
S11324D0822F8695869590E0837090708230910566
S11324E011F50A5F1F4FC8010E94C1014FB7F8944C
S11324F02091C1013091C2014FBF8217930761F04F
S1132500C8010E94C10121E030E0BFEF8F3F9B076B
S113251029F020E030E002C021E030E0211531054F
S113252009F4ACC13DC08330910509F0A7C1DE01B7
S11325305996E7ECF2E088E001900D928150E1F7C2
S1132540DE011996FE01799688E001900D92815082
S1132550E1F7DE019196FE01399688E001900D9233
S11325608150E1F7DE015196FE01B19688E00190B9
S11325700D928150E1F7DE011196FE01719688E01B
S113258001900D928150E1F7C8010696BE016F5F7C
S11325907F4F48E050E00E944A1F009709F06EC147
S11325A0EE2DED3008F46AC100913C0110913D011B
S11325B0C80101960E94C101492F892F86958695ED
S11325C090E09C0123703070842F829586958695C7
S11325D0837090E08330910519F042E050E002C02E
S11325E048E050E02330310519F0E2E0F0E002C0A9
S11325F0E8E0F0E03696E00FF11F80E090E020E0A4
S113260030E06191860F911D2F5F3F4F24173507EE
S1132610C4F3D80113967C912FEF20935103AFB7E5
S1132620F89460915103E5E4F1E020E030E040816A
S113263051814817590741F44281471721F46093A7
S11326405103AFBF17C1622F2F5F3F4F3396243022
S1132650310569F760935103AFBF209151035FB710
S1132660F8942F3F21F030912701321721F4209163
S1132670270141E001C040E030E0F901EE0FFF1F07
S1132680E20FF31FEB5BFE4F91838083728344233D
S113269031F0809127018F5F8370809327015FBFA2
S11326A0EFB6F894C8010E948B04FC018081EFBE50
S11326B0D8019B969C919B97992309F4DBC08F3397
S11326C009F0D8C036E0E32EF12CE00EF11EC7016C
S11326D00E94C1014FB7F89420910701309108017D
S11326E04FBF8217930761F0C7010E94C10121E027
S11326F030E0BFEF8F3F9B0729F020E030E002C0BD
S113270021E030E02115310509F4B4C0F8018385D6
S1132710863009F0AFC02CE0E22EF12CE00EF11E61
S1132720D8011C968C911C97813009F054C090916B
S11327301C0180911D0190939602809395028FEF66
S11327409FEF62E00E94990EE1E8F1E021E080E071
S113275090E03191D701A80FB91F11964C911197B0
S1132760431320E001968431910599F7222309F45B
S113277081C08091FC018D7F8093FC01C090000199
S1132780D0900101C70145960E944902F601EE531B
S1132790FE4F808383E080939502C092AB02D09277
S11327A0AA020E942F0AE0910001F0910101EE5368
S11327B0FE4F808190E06CE10E94990E80910001AF
S11327C0909101018230910509F451C08430910542
S11327D009F050C04CC0823079F58091000190918D
S11327E001018130910521F08330910509F042C047
S11327F0C70147960E944902909353038093520362
S1132800C70149960E9449029093860280938502EB
S1132810F701838D833019F482E00E943C0F80918C
S113282005028D7F8093050282E040E757E160E076
S113283070E00E94E4051EC08330E1F48091FC0145
S11328408D7F8093FC01E0900001F0900101C801AC
S113285081960E944902F701EE53FE4F8083F2E015
S1132860EF16F10421F024E0E216F10419F481E0FA
S11328700E94F00210933D0100933C018FB7F8943D
S113288010927C018FBF0E947B0BA9C180917501BE
S1132890882311F5EFB7F8946091530170915401B6
S11328A080915501909156012091BD023091BE0254
S11328B04091BF025091C002620F731F841F951F85
S11328C0EFBF2091DC023091DD024091DE02509195
S11328D0DF0200E00E9496060E945C0350C00E9442
S11328E05C039B01AC018FB7F8941092D7018FBFA2
S11328F0EBEEF1E099249FEFE92E9FEFF92E9FEF85
S1132900092F9FE7192F60E070E0DB0183E0AA0F35
S1132910BB1F8A95E1F7A60FB71FA551BE4F1896A6
S11329208C91189781FF1BC080819181A281B38112
S113293059016A01A81AB90ACA0ADB0A8481958175
S1132940A681B7818A199B09AC09BD098E159F051B
S1132950A007B10724F47C018D01992493946F5F3F
S11329607F4F39966530710581F6992009F437C196
S11329701E141F04100611062CF0CA01B9010E948E
S1132980460F2DC1CA01B901A801970101E00E94B7
S1132990960625C180919F0190910A01891709F437
S11329A01EC180930A01882399F480912801909193
S11329B029010E94690D882309F411C18FEF8093C6
S11329C00A0180912801909129010E948A0E07C171
S11329D08FEF80930A0103C13FB7F8941092590313
S11329E09091830281E0983009F080E021E09930F1
S11329F009F020E0882311F4222351F0109283027D
S1132A00E091EA01F0E0EE0FFF1FE153FE4F108268
S1132A103FBF882311F4222309F12FB7F894909132
S1132A2038039F5F909338039091BC01933471F401
S1132A308091D9019091D801981761F08F5F8093AC
S1132A40D901863038F01092D90104C001E008277A
S1132A5091E002C090E000E02FBF04C0992309F088
S1132A6054C000E02FB7F89480912A012FBF882327
S1132A7039F08FB7F8942AE0209383028FBF39C0CE
S1132A808FB7F894E090CF011091D1018FBF99A72F
S1132A900E94AB0199A58823F1F4EE20E1F41FB75D
S1132AA0F89482E08093CF0199A70E94AB0199A585
S1132AB0882339F4E091D901F0E0E852FE4F828195
S1132AC001C080E08093D00183E48093BC01109224
S1132AD0EA011FBF0CC01150123058F48FB7F8949C
S1132AE025E42093BC0121E02093EA018FBF11E08B
S1132AF001C010E0992351F08FB7F894009333018B
S1132B008FBF85E10E94F00201C010E00FB7F89476
S1132B10809183028A3021F40E9467040FBF5FC052
S1132B200FBF112309F45BC08FB7F89410926003B0
S1132B3010925F031092B60191E0909383028FBFCD
S1132B400E94610A882309F44AC08FB7F89499E077
S1132B50909383028FBF0E94790441C0569857987E
S1132B601092820210928001539A549A579A8FB706
S1132B70F8941092830210927D018FBF0E94D80AAC
S1132B802EC084E10E94F0022AC05398549827C0B2
S1132B901092300110922F018FB7F8948FBF1FC08D
S1132BA03FB7F894809138019091390120915801F0
S1132BB03FBF3FB7F894E22FF0E0EE0FFF1FE25F54
S1132BC0FE4F9183808380912B01222311F08B7F10
S1132BD001C08D7F80932B01109236013FBFA996CF
S1132BE00FB6F894DEBF0FBECDBFCF91DF911F911A
S1132BF00F91FF90EF90DF90CF90BF90AF909F9098
S1132C0008950E9499028F3F21F00E941B1081E0D9
S1132C10089580E008958FB7F89408958FBF0895BC
S1132C20EF92FF920F931F93DF93CF93CDB7DEB74D
S1132C3028970FB6F894DEBF0FBECDBFEFB6F89459
S1132C408AE591E06FEF70E047E150E00E94571F82
S1132C508FEF8093350380935D0381E08EBD88E020
S1132C6080BF83E083BF8CB59DB54AE701C0C9012D
S1132C702CB53DB52817390708F441504423B9F75A
S1132C8082B792B79817E9F32CB53DB582B792B7DE
S1132C909817E9F38CB59DB54096821B930BF5E02C
S1132CA096958795FA95E1F79093370380933603C9
S1132CB013BE83B78EBD8EB580BF12BE1DBC1CBCB7
S1132CC08FEF86BF86B780937C0080B790E08770D3
S1132CD090700097D1F7D29AD19AD09ADA9AD99A69
S1132CE0D89A15BA8FEF84BBD498DC9810928900D7
S1132CF01092880080917D00846080937D00809193
S1132D008A00887F826080938A001DBC1CBC87B7C0
S1132D10846087BF8EB5887F84608EBD0E94011653
S1132D208823E1F780910001909101010196A0E0D0
S1132D30B0E080939B0190939C01A0939D01B0937C
S1132D409E0112E006E0609136037091370380E043
S1132D5090E0ECE0660F771F881F991FEA95D1F782
S1132D6020E031EE40E050E00E94D21E215030407D
S1132D7029B9309390001BB9009395001AB8209399
S1132D8099003093980010939B0000939D0010923B
S1132D909A0084E490E09093D8028093D702109232
S1132DA0CF011092D1018AE0809383021092B60180
S1132DB01092BC01109238031092600310925F03CA
S1132DC0109259031092EA010E9487021092D901CD
S1132DD01092D8011FEF10937A018FEF9FEF909319
S1132DE046018093450110924701909349018093D5
S1132DF0480110924A0190934C0180934B01109228
S1132E004D0190934F0180934E01109250010E9406
S1132E10F0018093D10280B7886080BF8BE083BFCC
S1132E2086EE81BF87B7826087BF0E94120680E06A
S1132E3093E090933D0180933C018E980E94DF01C2
S1132E408C981093BB011092C1021092C20210928E
S1132E50C3021092C4020E94DF01D69AD59A2FB7FA
S1132E60F89480910701909108012FBF9093C201BB
S1132E708093C1010E946A0229833A834B835C8355
S1132E806D837E838F839887A7ECB2E0FE01319631
S1132E9088E001900D928150E1F7809109018093BF
S1132EA09601109297018FE1809388028AE18093C2
S1132EB0CF020E946A0229833A834B835C836D8329
S1132EC07E838F839887A7ECB2E0FE01319688E079
S1132ED001900D928150E1F7EFECF2E0DF011897D9
S1132EE08C9192919D93808382E0EB3CF807C1F72B
S1132EF081E080937701109254038093980110929B
S1132F00C60280910001909101010196A0E0B0E019
S1132F1080939B0190939C01A0939D01B0939E018B
S1132F200E9401168823E1F7EFBE789480911C017A
S1132F3090911D010097D1F40DE313E072EAE72E9E
S1132F4071E0F72E0E94F001F801808391830E94C2
S1132F50F001F701808391830E5F1F4F82E090E0C0
S1132F60E80EF91E93E00135190761F7809100011D
S1132F709091010101978230910558F4EDE3F3E05B
S1132F80A1E8B1E081918D9383E0E135F807D1F7B1
S1132F900AC0E2EAF1E0A1E8B1E081918D9391E009
S1132FA0E63BF907D1F780911C0190911D01019630
S1132FB090931D0180931C010E94920A1FB7F894FC
S1132FC046C087B7887BA1F480917D008B7F81F414
S1132FD06E990EC09AB180919A00892B887141F440
S1132FE08091740082FD04C0379B04C021E003C0BB
S1132FF020E001C025E087B790E0837090700097CF
S113300079F080B790E0877090700097D1F781B71E
S113301092B7891B8C3030F082B7853F28F002C00C
S1133020E5E003C0E2E001C0E3E085B72E1708F451
S1133030E22FF0E0E654FD4FE491837C80628E2B16
S113304085BF78948895F89485B78F7D85BF0E9455
S113305099028F3F09F4B5CF1FBF0E941B10AECF5A
S11330601F920F920FB60F920BB60F9211242F934B
S11330703F934F935F936F937F938F939F93AF93FC
S1133080BF93EF93FF930E94AF0221B730E02F5F0D
S11330903F4F40E050E08091410190914201A09166
S11330A04301B0914401820F931FA41FB51F809365
S11330B0410190934201A0934301B0934401789459
S11330C00E941206FF91EF91BF91AF919F918F9152
S11330D07F916F915F914F913F912F910F900BBE14
S11330E00F900FBE0F901F9018951F920F920FB65E
S11330F00F920BB60F9211242F933F934F935F932C
S11331006F937F938F939F93AF93BF93EF93FF93AB
S11331100E94AF02FF91EF91BF91AF919F918F9168
S11331207F916F915F914F913F912F910F900BBEC3
S11331300F900FBE0F901F90189578941F920F92C6
S11331400FB60F920BB60F9211241F932F933F9338
S11331504F935F936F937F938F939F93AF93BF939B
S1133160EF93FF930E945A0278941FB7F8948091CA
S1133170B7019091B801A091B901B091BA0100973B
S1133180A105B10509F051C0809124019091250158
S11331908530910561F18630910538F483309105CD
S11331A059F08430910561F519C087309105E9F033
S11331B08830910529F512C0869B0DC084E090E00B
S11331C0909325018093240167E070E080E090E013
S11331D00E94430415C00E94970712C00E945C0D10
S11331E0882371F40E94E1090BC080E007C00E94AB
S11331F089070E947B080E945B0787E00E94D00930
S113320080911F01909120018130910581F482E029
S113321090E09093200180931F010E9460020E941D
S11332205E0280E00E94E00A02C00E94B5031FBF54
S1133230FF91EF91BF91AF919F918F917F916F918A
S11332405F914F913F912F911F910F900BBE0F9063
S11332500FBE0F901F90189578941F920F920FB67F
S11332600F9211240F900FBE0F901F901895789411
S11332701F920F920FB60F9211240F900FBE0F9052
S11332801F90189578941F920F920FB60F920BB659
S11332900F9211246F927F928F929F92AF92BF925E
S11332A0CF92DF92EF92FF920F931F932F933F934E
S11332B04F935F936F937F938F939F93AF93BF933A
S11332C0EF93FF93DF93CF930F92CDB7DEB7C6B4DE
S11332D0D7B4BFB6F8940E948D019B012C193D0907
S11332E040E050E07B018C01E21AF30A040B150B59
S11332F080912401909125018530910529F0863033
S1133300910509F080C05DC086E090E090932501AE
S11333108093240181E080937B011092260180E058
S11333200E9460088091990190919A018E96B8014B
S1133330A7010E94B601E0919901F0919A0185A537
S1133340882351F1208125503F01620E711CC30175
S113335029830E94B502AB01BC014E195F09600BC1
S1133360710BC3010E94B6010E94DD0180E090E070
S11333702981622FA30124E00E94EC070E945802D5
S1133380C3010E94B502AB01BC014E0D5F1D601F5D
S1133390711FC3010E94B6018091990190919A0115
S11333A001960E94C10185FF03C081E08093590109
S11333B00E945B070E945A020E94E002882309F0DF
S11333C07BC010927B010E947B08809199019091AF
S11333D09A0101960E94C10185FF0DC087E090E02B
S11333E0909325018093240160E071E080E090E0F7
S11333F00E94430403C080E00E94D0090E94E002BE
S1133400882309F459C080912601882379F5809195
S11334107B01882359F581E080937B0180E00E9441
S113342060080E94E002A82E80913403883090F452
S1133430E0913903E80FE770F0E0EE0FFF1FEE0FA5
S1133440FF1FE052FD4FE082F182028313838F5FFE
S11334508093340381E080932601D092CE01C09200
S1133460CD010E94E002882311F026C0AA24809195
S11334707B01813009F510927B010E947B08109238
S11334802601AA20C9F48091CD019091CE01C81AD9
S1133490D90A2AE0C216D10478F48091340388232F
S11334A019F08150809334038091990190919A018D
S11334B0009711F00E948D07BFBE0F90CF91DF914E
S11334C0FF91EF91BF91AF919F918F917F916F91F8
S11334D05F914F913F912F911F910F91FF90EF902A
S11334E0DF90CF90BF90AF909F908F907F906F9020
S11334F00F900BBE0F900FBE0F901F9018957894ED
S11335001F920F920FB60F9211242F938F939F93B4
S11335102FB7F8948091E4019091E501019690937E
S1133520E5018093E4012FBF9F918F912F910F901C
S11335300FBE0F901F9018951F920F920FB60F9207
S113354011240F900FBE0F901F9018951F920F9289
S11335500FB60F9211240F900FBE0F901F90189565
S11335601F920F920FB60F9211240F900FBE0F905F
S11335701F9018951F920F920FB60F9211240F905F
S11335800FBE0F901F9018951F920F920FB60F92B7
S113359011240F900FBE0F901F9018951F920F9239
S11335A00FB60F9211240F900FBE0F901F90189515
S11335B01F920F920FB60F920BB60F9211242F93F6
S11335C03F934F935F936F937F938F939F93AF93A7
S11335D0BF93EF93FF9380917101909172018130B9
S11335E0910549F482E090E0909372018093710117
S11335F00E94620B05C0809178018F5F80937801EF
S1133600FF91EF91BF91AF919F918F917F916F91B6
S11336105F914F913F912F910F900BBE0F900FBE72
S11336200F901F9018951F920F920FB60F921124AE
S11336300F900FBE0F901F9018951F920F920FB608
S11336400F920BB60F9211242F933F934F935F93D6
S11336506F937F938F939F93AF93BF93EF93FF9356
S11336602FB18091800290918102009739F0E0910E
S1133670E001F091E101E80FF91F20838091E0015E
S11336809091E10101969093E1018093E00180E043
S11336900E94E4022091E0013091E10180913E0119
S11336A090913F012817390718F40E94030517C0A9
S11336B08091800290918102109281021092800286
S11336C0109256031092550310923F0110923E013E
S11336D01092E1011092E0012FB10E94B60BFF910C
S11336E0EF91BF91AF919F918F917F916F915F9176
S11336F04F913F912F910F900BBE0F900FBE0F90E3
S11337001F9018951F920F920FB60F920BB60F923F
S113371011242F933F934F935F936F937F938F93D2
S11337209F93AF93BF93EF93FF935F9B3FC06CB1A5
S11337302091E8013091E9012115310501F18091D1
S1133740570390915803280F391FF901608301969C
S1133750909358038093570320916103309162033F
S11337608217930718F11092E9011092E8018091F1
S113377082028330D9F057981092820217C06E37B4
S113378019F481E060E010C080913B016D3721F4B1
S1133790826080933B010AC081FF05C08D7F8093C6
S11337A03B0180E2682780E00E948E08FF91EF9140
S11337B0BF91AF919F918F917F916F915F914F9145
S11337C03F912F910F900BBE0F900FBE0F901F9043
S11337D0189578941F920F920FB60F920BB60F9212
S11337E01124FF920F931F932F933F934F935F9353
S11337F06F937F938F939F93AF93BF93CF93DF93F5
S1133800EF93FF9320917E0130917F018091D90243
S11338109091DA022817390780F4E091C901F091F8
S1133820CA01E20FF31F80812F5F3F4F30937F0166
S113383020937E010E94EA02C1C01092CA01109234
S1133840C9011092800156981FB7F89480913B01EA
S113385080FF0AC08E7F80933B0180918402809315
S113386074010E943A0AA9C080918302843009F449
S113387086C0853040F4823011F18330A8F5813060
S113388009F096C00DC0863009F487C0863008F46C
S11338907DC0873009F488C0883009F089C08BC0A6
S11338A08091BC010E946F0A082F83E080938302F9
S11338B080915F03909160036091BC010EC0809180
S11338C038030E946F0A082F83E08093830280915B
S11338D05F0390916003609138030E947F08909386
S11338E0600380935F0362C0E091EA01F0E0EE0FB1
S11338F0FF1FE053FE4F80810E946F0A082FF09053
S1133900EA01CF2DD0E0FE01EE0FFF1FE053FE4F82
S113391080915F039091600360810E947F0890937F
S1133920600380935F038091B6018F5F8093B6013B
S11339309F2D913011F520913201E0912D01F091EC
S11339402E01E20FF11D90812F5F209332013091FF
S11339503101321720F492E09093D10190E0CC0F22
S1133960DD1FFE01E153FE4F2081223031F08F3FF5
S113397021F0C053DE4F988319C084E012C08091B7
S11339805F030E946F0A082F85E00BC080916003DB
S11339900E946F0A082F86E004C00E94610A082F63
S11339A087E08093830202C088E003C0002329F0EB
S11339B089E0809383020E9479041FBFFF91EF91F5
S11339C0DF91CF91BF91AF919F918F917F916F9133
S11339D05F914F913F912F911F910F91FF900F9005
S11339E00BBE0F900FBE0F901F9018951F920F9251
S11339F00FB60F9211248F9380919B0087FF02C012
S1133A0080919C008F910F900FBE0F901F9018957E
S1133A1078941F920F920FB60F9211240F900FBE3D
S1133A200F901F90189578941F920F920FB60F92D3
S1133A3011240F900FBE0F901F90189578941F9229
S1133A400F920FB60F9211240F900FBE0F901F907C
S1133A50189578941F920F920FB60F9211240F901D
S1133A600FBE0F901F90189578941F920F920FB667
S1133A700F9211248F939F938091800090918100E5
S1133A809F918F910F900FBE0F901F90189578946F
S1133A901F920F920FB60F9211242F938F939F931F
S1133AA02FB7F8948091A0019091A1010196909371
S1133AB0A1018093A0012FBF9F918F912F910F900F
S1133AC00FBE0F901F901895ACE2B0E0EAE6FDE15E
S1133AD00C94131F29833A834B835C836D837E8309
S1133AE08F839887A986BA86CB86DC86ED86FE8688
S1133AF00F87188B69807A808B809C8069A27AA258
S1133B008BA29CA2840173018FEF9FEFA0E0B0E031
S1133B10E822F9220A231B2314014424552469842E
S1133B207A848B849C846DA27EA28FA298A6640161
S1133B305301A822B922CA22DB2234018824992401
S1133B40C601B501A80197010E94F41E69A77AA7CE
S1133B508BA79CA7C401B3010E94F41E7B018C01B6
S1133B60C601B501A20191010E94F41E5B016C0122
S1133B70C401B3010E94F41E9B01AC01EA0CFB1CBE
S1133B800C1D1D1D69A47AA48BA49CA4C401AA279E
S1133B90BB27E80EF91E0A1F1B1FEA14FB040C05C1
S1133BA01D0520F4205030404F4F5F4FC801AA2715
S1133BB0BB27820F931FA41FB51F8D8F9E8FAF8FBE
S1133BC0B8A38701FF24EE2429A53AA54BA55CA53B
S1133BD040705070E20EF31E041F151FE98EFA8E1A
S1133BE00B8F1C8FDE2CAA8CCB8C6C8C8D8B8E8DCA
S1133BF08E8B8F8D8F8B88A1888F2D853E854F85E9
S1133C00588969A17AA18BA19CA10E94F41E7B0111
S1133C108C012D813E814F8158856DA17EA18FA19C
S1133C2098A50E94F41EE60EF71E081F191F6D8941
S1133C307E898F89988D6E0D7F1D801F911F6D8BDE
S1133C407E8B8F8B988F7E892D2D3A2D4C2D562D62
S1133C508F89988DAC96E2E10C942F1F0F93DF931C
S1133C60CF93CDB7DEB760970FB6F894DEBF0FBE23
S1133C70CDBF002309F459C029833A834B835C8365
S1133C806D837E838F839887E0E2E01B2D813E81E4
S1133C904F8158851E16BCF01D861E861F86188A05
S1133CA08E2F992787FD9095909581959F4F04C0FD
S1133CB056954795379527958A95D2F729873A8758
S1133CC04B875C872AC0CA01B901002E04C09695AF
S1133CD08795779567950A94D2F76D877E878F8746
S1133CE0988BDA01C90104C0880F991FAA1FBB1F52
S1133CF0EA95D2F729813A814B815C8104C05695BB
S1133D004795379527950A95D2F7822B932BA42BA9
S1133D10B52B89879A87AB87BC8729853A854B85DC
S1133D205C856D857E858F85988960960FB6F8943D
S1133D30DEBF0FBECDBFCF91DF910F910895991BC8
S1133D4079E004C0991F961708F0961B881F7A958E
S1133D50C9F780950895AA1BBB1B51E107C0AA1F90
S1133D60BB1FA617B70710F0A61BB70B881F991F18
S1133D705A95A9F780959095BC01CD01089597FBBC
S1133D80092E07260AD077FD04D0E5DF06D00020EF
S1133D901AF4709561957F4F0895F6F79095819583
S1133DA09F4F0895A1E21A2EAA1BBB1BFD010DC053
S1133DB0AA1FBB1FEE1FFF1FA217B307E407F507D7
S1133DC020F0A21BB30BE40BF50B661F771F881FB3
S1133DD0991F1A9469F760957095809590959B0149
S1133DE0AC01BD01CF010895629FD001739FF00122
S1133DF0829FE00DF11D649FE00DF11D929FF00D77
S1133E00839FF00D749FF00D659FF00D9927729FAD
S1133E10B00DE11DF91F639FB00DE11DF91FBD0138
S1133E20CF01112408952F923F924F925F926F9287
S1133E307F928F929F92AF92BF92CF92DF92EF9236
S1133E40FF920F931F93CF93DF93CDB7DEB7CA1BB7
S1133E50DB0B0FB6F894DEBF0FBECDBF09942A88E2
S1133E60398848885F846E847D848C849B84AA848A
S1133E70B984C884DF80EE80FD800C811B81AA8117
S1133E80B981CE0FD11D0FB6F894DEBF0FBECDBFE2
S1133E90ED010895FB01DC0104C08D9101908019AE
S1133EA021F441505040C8F7881B990B0895DC0158
S1133EB001C06D9341505040E0F70895F894FFCF4E
S1133EC0010001FFFFFFFF010022FFFFFFFF1802B7
S10F3ED04C02180200009CFF02000800D5
S9030000FC
