S01800006275696C642F6D6963617A2F6D61696E2E73726563E5
S11300000C9449000C94EB040C94F5040C94FF0438
S11300100C9409050C9413050C941D050C94CA0644
S11300200C9427050C9468000C9468000C94D60A70
S11300300C942B160C94B5040C94CB040C9431053D
S11300400C94A4040C94D70E0C9468000C946800CF
S11300500C9468000C9468000C9468000C9468007C
S11300600C94C0040C9468000C9468000C94680010
S11300700C9468000C9468000C9468000C9468005C
S11300800C9468000C9468000C94680000081C1818
S1130090141011241FBECFEFD0E1DEBFCDBF11E09D
S11300A0A0E0B1E0E0E0F7E300E00BBF02C007909E
S11300B00D92A631B107D9F712E0A6E1B1E001C073
S11300C01D92AF35B107E1F70E9476140C947F1BA3
S11300D00C9400008FB7F894992708958FBF089562
S11300E0FC0182819927582F442781819927482B25
S11300F0592BCA01892F992786958695837090700C
S11301008230910559F08330910559F0892B19F407
S113011020E030E008C02CE93FEF05C022E030E0E9
S113012002C028E030E0CA0184E0989F812D99271D
S113013011248230910559F08330910559F0892BAF
S113014019F480E090E008C08CE99FEF05C082E0DC
S113015090E002C088E090E0280F391F2A5F3F4FEB
S1130160CF01820F931F0895282F9FB7F894662319
S113017049F0E82FFF27EA52FE4F8081882311F0CF
S113018021E006C0E22FFF27EA52FE4F608320E001
S1130190892F99278FBF822F99270895E82F8FB72A
S11301A0F894282F332790E0FF27EA52FE4F8081EE
S11301B0861709F491E02FBF892F99270895882382
S11301C011F06E9A08956E980895882311F06F9A2D
S11301D008956F98089580E00E94DF00BA9ABB9852
S11301E0B99AB89A6C9A80E00E94E5006B986A9874
S11301F081E00E94DF00709A8DB18C7F8DB90895E3
S11302000F931F93CF93DF93182F8FB7F894C82FB2
S1130210DD270C2F61E080E00E94B400882321F0E8
S1130220CFBF85E090E024C080910F018823A1F422
S113023080911B01823081F409C082E080931B010C
S113024010920F010E94EB00B89AC09810930C0111
S113025080E00FBF99270CC080911B01882369F3AC
S11302608FB7F89499271092D6018FBF81E0F1CF10
S1130270DF91CF911F910F910895282F9FB7F89484
S1130280E82FFF27E15CFE4F80818F3F81F4E091EE
S11302905702E21771F40BC02093400204C0FF27F9
S11302A0E15CFE4F20832093570220E007C025E045
S11302B005C0809140028F3F91F7EECF892F992797
S11302C08FBF822F992708951F93182F81E00E94D2
S11302D0DF001FB9779BFECF8FB199271F91089537
S11302E08F929F92AF92BF92CF92DF92EF92FF9242
S11302F00F931F93CF93DF938FB7F8949927C090F0
S11303005202D09053028090CF019090D001C091BE
S1130310AE01D091AF012091240130912501EAE092
S1130320AE2EB12CAC0EBD1E2A153B0508F45901A6
S11303308FBF7401EC0EFD1E86010C0F1D1F14C02F
S1130340C114D10419F0F801808101C080E00E9439
S113035064018114910411F0F701808321960894BB
S1130360E11CF11C0F5F1F4FC5010197C817D90786
S113037038F381E00E94E5009FB7F894C114D104DA
S113038031F0CC0EDD1EF60180818FB901C01FB89B
S1130390D093AF01C093AE01892F99278FBF80E01E
S11303A090E0DF91CF911F910F91FF90EF90DF903C
S11303B0CF90BF90AF909F908F9008952FB7F894EF
S11303C03327509325014093240190935302809343
S11303D052027093D0016093CF011092AF0110923A
S11303E0AE012FBF452B29F08FB10E9470019927D0
S11303F0089589E00E943D0180E090E008958FB760
S1130400F89499271092D8018FBF08957FB7F89474
S113041062B7209127013091280140912901509120
S11304202A0106B601FE0FC081B792B7280F311D0D
S1130430411D511D2F5F3F4F4F4F5F4F290F311DFE
S1130440411D511D04C0260F311D411D511D872F13
S113045099278FBFCA01B9010895DF92EF92FF92E5
S11304600F931F93D82E7A018B010E94060229E074
S1130470D29EF0011124EC54FE4F60837183828379
S11304809383E482F5820683178380858360808763
S11304908DE00E943D011F910F91FF90EF90DF903E
S11304A00895DF92EF92FF920F931F938FB7F89402
S11304B0282F3327D22E91B782B746B7981711F059
S11304C041FF02C02FBF6AC08091AD018823E1F1D2
S11304D00E940602E090D201F090D3010091D40171
S11304E01091D5012091390130913A0140913B019D
S11304F050913C016E197F09800B910B62177307B1
S11305008407950720F01092AD0171E01EC02E0DF6
S11305103F1D401F511F8091270190912801A091F8
S11305202901B0912A01281B390B4A0B5B0B273E8A
S113053031054105510540F4822F223010F070E05E
S113054005C070E082E002C070E086EE682F615062
S113055000B601FCFDCF82B7681709F46F5F2091E4
S11305602701309128014091290150912A01DA0193
S1130570C9010196A11DB11D860F911DA11DB11DBB
S113058082179307A407B50710F4622F609561BF23
S1130590DFBE772319F08CE00E943D011F910F917B
S11305A0FF90EF90DF900895AFB7F894BB27E1E098
S11305B0E093AD016093D2017093D3018093D40191
S11305C09093D5012093390130933A0140933B0134
S11305D050933C01AFBF0E945102089580E880937C
S11305E03D01109258011092430210923F02109262
S11305F054010895CF93DF93FC0115A6DC019E9668
S1130600ED011B821A82198280E886A7DF91CF91BF
S113061008952F923F924F925F926F927F928F92A2
S11306209F92AF92BF92CF92DF92EF92FF920F937D
S11306301F93CF93DF93CDB7DEB728970FB6F89407
S1130640DEBF0FBECDBF20905E0130905F014090B1
S1130650600150906101662477248824BEE4AB2EA7
S1130660A3E8BA2ECC24DD24EE24FF2400E010E01D
S1130670222D332D442D552D662D772D882D90E078
S11306800E94B91629833A834B835C836D837E83EE
S11306908F839887822E932EA42EB52E24013501A4
S11306A000E20E94B717A22EB32EC42ED52EC3018A
S11306B0B20196958795779567956A0D7B1D8C1D7C
S11306C09D1D97FF05C09F776F5F7F4F8F4F9F4F93
S11306D060935E0170935F01809360019093610168
S11306E028960FB6F894DEBF0FBECDBFDF91CF9131
S11306F01F910F91FF90EF90DF90CF90BF90AF903C
S11307009F908F907F906F905F904F903F902F902D
S113071008958FB7F8946091B2017091B3012CB52C
S11307203DB506B602FE04C06F5F7F4F2CB53DB5E4
S113073099278FBF88279927CB01772766274427D6
S11307405527622B732B842B952B0895EF92FF92E0
S11307500F931F930E9489037B018C0120916801F0
S11307603091690140916A0150916B01809163015C
S113077090916401A0916501B0916601820F931F6D
S1130780A41FB51FE216F3060407150730F08217FD
S11307909307A407B50758F005C082179307A40769
S11307A0B507E0F5E816F9060A071B07B8F59C013A
S11307B0AD012E193F09400B510B213060E836077B
S11307C060E0460760E0560768F180E090E8A0E04A
S11307D0B0E0E80EF91E0A1F1B1FE0926801F092B8
S11307E0690100936A0110936B0180E090E8AFEF18
S11307F0BFEFE80EF91E0A1F1B1F2050304840406F
S113080050402093630130936401409365015093F9
S1130810660120E030E840E050E014C020E030E021
S113082040E050E08093680190936901A0936A01CD
S1130830B0936B01109263011092640110926501F0
S113084010926601A901B7012CB53DB5C9018E19F5
S11308509F0903968417950720F0B9016D5F7F4FB8
S113086002C0640F751F6115710511F461E070E039
S1130870615070407BBD6ABD80E186BF87B78061EF
S113088087BF1F910F91FF90EF9008950F931F93CF
S11308900FB7F894112760936801709369018093EE
S11308A06A0190936B012093630130936401409338
S11308B06501509366010E94A6030FBF1F910F911B
S11308C0089597B79F7D97BF90E296BF882319F04C
S11308D08EB5806402C08EB58F7B8EBD87B7806273
S11308E087BF80E090E00895AF92BF92CF92DF92ED
S11308F0EF92FF920F931F93CF93DF93CDB7DEB7A1
S113090028970FB6F894DEBF0FBECDBF20E070E08D
S1130910E0910901F0910A0132E14DE65CE46FE4F3
S113092080910A019E2F28960FB6F894DEBF0FBE61
S1130930CDBFDF91CF911F910F91FF90EF90DF908A
S1130940CF90BF90AF9008951F920F920FB60F9261
S113095011248F9383B783BF00B600FCFDCF8F9122
S11309600F900FBE0F901F90189578941F920F92BE
S11309700FB60F9211240F900FBE0F901F90189571
S113098078941F920F920FB60F9211240F900FBEFE
S11309900F901F90189578941F920F920FB60F9294
S11309A011242F933F938F939F932FB7F89433275A
S11309B08091B2019091B30101969093B301809319
S11309C0B2012FBF9F918F913F912F910F900FBE36
S11309D00F901F9018951F920F920FB60F9211242B
S11309E00F900FBE0F901F9018951F920F920FB685
S11309F00F9211240F900FBE0F901F9018951F9205
S1130A000F920FB60F9211240F900FBE0F901F90EC
S1130A1018951F920F920FB60F9211240F900FBECC
S1130A200F901F9018951F920F920FB60F921124DA
S1130A300F900FBE0F901F9018951F920F920FB634
S1130A400F9211240F900FBE0F901F9018951F92B4
S1130A500F920FB60F9211240F900FBE0F901F909C
S1130A6018951F920F920FB60F9211242F933F9354
S1130A704F935F936F937F938F939F93AF93BF93A2
S1130A80EF93FF9383B783BF00B600FCFDCF81B71C
S1130A9099270196AA27BB27209127013091280185
S1130AA04091290150912A01280F391F4A1F5B1FC9
S1130AB020932701309328014093290150932A0160
S1130AC078940E945102FF91EF91BF91AF919F9151
S1130AD08F917F916F915F914F913F912F910F90E3
S1130AE00FBE0F901F9018950F931F93182F0FB7D9
S1130AF0F89461E080E00E94B400882371F51093BB
S1130B000C0180910F018823A9F580911B0182308B
S1130B1089F588E00CC00E94EB0080911B018823BA
S1130B2049F481E080931B01109255018AE00E94F0
S1130B303D012AC0809167018F3F31F5E0910E019C
S1130B40EE2311F11CC010920D0104C0FF27E959D6
S1130B50FE4F108210920E0117C081E090E002C097
S1130B60880F991F1A95E2F720911A01282B2093D8
S1130B701A010AC080911B018823E1F6CCCF809131
S1130B800D018F3F19F7DFCF802F99278FBF80E0AA
S1130B9090E01F910F9108951F9383E00E9400013C
S1130BA09927182F882319F083E00E947405812F58
S1130BB099271F910895CF92DF92EF92FF920F939E
S1130BC01F93CF93DF938C01F62E6A01E22E8FB729
S1130BD0F894C82FDD2760E080E00E94CE008823CF
S1130BE021F0CFBF80E090E01EC0CFBF0F0D111DDC
S1130BF0802F80680E946401F82E16950795802F37
S1130C00807C0E9464010E2D0AC0EE2DFF27E01B9C
S1130C10F109EC0DFD1D80810E9464010150002347
S1130C20A1F78F2D9927DF91CF911F910F91FF90FD
S1130C30EF90DF90CF900895CF93DF93CDB7DEB7D9
S1130C402C970FB6F894DEBF0FBECDBF8FB7F894C4
S1130C50282FAE014F5F5F4FDA01ECEDF1E088E041
S1130C6001900D928150E1F78091590190915A01C0
S1130C708987892F99278A878091A0019091A10162
S1130C808B87892F99278C872FBF2CE060E080E623
S1130C9091E00E94DB052C960FB6F894DEBF0FBEE0
S1130CA0CDBFDF91CF9108951F93CF93DF93182F7A
S1130CB08FB7F894C82FDD2760E080E00E94CE0053
S1130CC0882321F0CFBF80E090E005C0CFBF812F03
S1130CD00E9464019927DF91CF911F910895EF92AB
S1130CE0FF920F931F93CF93DF93182F7B01042F51
S1130CF08FB7F894C82FDD2760E080E00E94CE0013
S1130D00882321F0CFBF80E090E014C0CFBF1064EF
S1130D10812F99279093A5018093A4010E946401D7
S1130D20182F402F5527B70180E090E00E94DE0184
S1130D30812F9927DF91CF911F910F91FF90EF9011
S1130D400895C098609122017091230141E08FE3DE
S1130D500E946F06089582E090E090934F01809383
S1130D604E0181E08093580120E030E080910C0135
S1130D70843011F421E030E0232B29F484E00E9434
S1130D800001882319F40E94A106089584E00E94BA
S1130D90740508951F920F920FB60F9211242F938A
S1130DA03F934F935F936F937F938F939F93AF93EF
S1130DB0BF93EF93FF9380914E0190914F01019760
S1130DC049F482E090E090934F0180934E010E9499
S1130DD0AB0605C0809154018F5F80935401FF914D
S1130DE0EF91BF91AF919F918F917F916F915F919F
S1130DF04F913F912F910F900FBE0F901F90189518
S1130E001F9380911A01882309F04BC010910C01A3
S1130E101F3F09F046C060E00E94CE00882309F419
S1130E2040C081E08093E50180913E018823E1F197
S1130E301092E50185E090E045C0923069F5C09AD2
S1130E4080910D0120E030E08F3F11F421E030E08B
S1130E50232BE9F410930F018F3F19F42FEF30E0A7
S1130E600DC0282F3327F901E959FE4F8081809363
S1130E700D018F3F11F410930E011083209355013F
S1130E8081E080931B018AE00E943D0105C010931C
S1130E900F0110921B0111C080911B01882369F07E
S1130EA00FC081E090E00EC080910F0190911B0172
S1130EB0882319F2923021F0EFCF80E00E94DF0006
S1130EC080E090E01F9108951F93CF93DF939FB725
S1130ED0F894C92FDD271C2F90910C01981721F04D
S1130EE0CFBF81E090E03AC08FEF80930C01309146
S1130EF01A013323F1F48FB7F89499271092D6018D
S1130F008FBF0E940007CFBF11C020930C0181E066
S1130F1090E002C0880F991F4A95E2F78095382324
S1130F2030931A0188E00E943D011FBF80E090E0E9
S1130F3015C080E065E0E32FFF270E943A18292FAF
S1130F40492F5527CF01042E02C0959587950A9401
S1130F50E2F780FDDACF822F8F5FEFCFDF91CF9161
S1130F601F9108951F93CF93DF938FB7F894C82FE1
S1130F70DD271C2F80914E0190914F01892B29F47C
S1130F8084E00E946407CFBF1EC010925801809174
S1130F905401882311F0B79904C00E9908C088231E
S1130FA019F08150809354010E94AB060BC081E07C
S1130FB090E090934F0180934E011092540184E08D
S1130FC00E9464071FBFDF91CF911F9108950E9473
S1130FD0EE02C09AC09888E00E94540688E00E94FD
S1130FE05406C09A84E00E9464070E94B2070895E0
S1130FF0FF920F931F93CF93DF93F82E8B018FB73C
S1131000F894C82FDD2760E080E00E94CE0088239A
S113101021F0CFBF80E090E00CC0CFBF8F2D0E94A5
S11310206401812F99270E946401802F0E9464012A
S11310309927DF91CF911F910F91FF9008951F93EE
S11310401FB7F89480915301882319F460E070E08D
S113105009C060E080915102882309F461E081E0D5
S11310606827772780915B01882319F480E090E05A
S11310700AC090E08091DB01882309F491E081E0CB
S11310809827892F9927762F6627770F770F770F61
S1131090F4E0880F991FFA95E1F7826E9262682B4B
S11310A0792B81E10E94F807812F99278FBF1F9127
S11310B008958FB7F89499276091E4018FBF85E074
S11310C0689FB0011124625D7E4F706488E10E94C4
S11310D0F8070895EF92FF921F93CF93DF93E09068
S11310E05C01F0905D01F70182A59927182F8823F0
S11310F009F41FE1C09880915201811749F0612FD2
S113110077276F717070606E706885E10E94F807D0
S113111010935201F70110818FB7F894C82FDD277F
S113112060E080E00E94CE00882311F0CFBF12C09F
S1131130CFBF8EE390E09093A5018093A4018EE34A
S11311400E9464011150412F552760E070E0C701EF
S11311500E94DE01DF91CF911F91FF90EF900895DF
S11311600F931F93CF93DF93EC010FB7F8941127DC
S11311700E947000FC018FE380830FBF109246022F
S11311801092450261E082E00E94B400882319F0C5
S113119085E090E072C08091E6018F5F8093E60164
S11311A081508B838FB7F894082F112762E081E078
S11311B00E94CE00882329F40FBF0E94FF0181E022
S11311C05BC08FB7F894992724E02093D7018FBF91
S11311D0D093AC01C093AB010FBFFE013196818166
S11311E029819927982F88273327822B932B807264
S11311F09C7C8983892F992781832981982F88272B
S113120033272164822B932B8983892F9927818308
S11312101CA618A619A619AA18AA1FA680E88EA7A4
S113122061E06093DA014091AB015091AC018FB75A
S1131230F894282F332780911C0190911D01883048
S1131240910511F0019711F02FBF15C082E090E0D5
S113125090931D0180931C016093580250935D018B
S113126040935C01109226012FBF0E94CC05882375
S113127011F40E946A0880E09927DF91CF911F91B1
S11312800F910895CF93DF93DA01422F2D3118F097
S113129082E090E05EC0ED018B876E83872F9927F3
S11312A08F832FB7F89433278091590190915A0175
S11312B02FBFFD018483892F992785832FB7F89445
S11312C0332780911001909111012FBF8887892FB6
S11312D0992789873196818129819927982F882791
S11312E0332720643868822B932B8983892F99278D
S11312F08183435F4C934D5080911301882359F0AF
S113130010921301642FCD010E94B0089927282F51
S11313108823A9F417C0842F99279093AA01809356
S1131320A901B0932101A09320018EE00E943D0108
S113133080911301882349F489E090E00AC08FEF7B
S113134080931301822F992704C01092620180E0D8
S113135090E0DF91CF91089510920B01E091B001DC
S1131360F091B101309721F08091440280FF08C0D0
S113137081E080930B01089581E00E943D0108956E
S113138020812D50332767817727762F6627868122
S11313909927682B792BAF0183850E944209882302
S11313A059F70895CF93DF9380910B01882391F42B
S11313B0C091B001D091B101C617D70759F410926A
S11313C0B1011092B0010E94AC09CC56D14011F485
S11313D01092A801DF91CF910895CF93DF93FB0181
S11313E0DB0116968683892F9927ED01898386E090
S11313F083878091B0019091B101892B19F085E028
S113140090E02BC0F093B101E093B001435F4083BF
S11314104D5080910B01882319F480E090E01DC0A9
S11314208385ED0169817727762F66272681332707
S1131430622B732B10920B01242FAF010E944209DF
S11314409927282F882339F081E080930B0110928B
S1131450B1011092B001822F9927DF91CF910895A5
S1131460AF92BF92CF92DF92EF92FF920F931F93AE
S1131470CF93DF935B016C01C0E0D0E0E4EBF1E0DB
S1131480608561FF68C02081318142815381E4809D
S1131490F58006811781D601C501821B930BA40B2D
S11314A0B50B8E159F05A007B10708F454C060FF63
S11314B003C06D7F608708C02E0D3F1D401F511F64
S11314C02083318342835383C13021F0C23009F039
S11314D048C029C08091A801882309F042C08091A6
S11314E0090190910A010097C1F080937A01892F34
S11314F09927809379011092780110927C011092BF
S11315007B0147E06CE671E080E090E00E94ED0929
S1131510882319F481E08093A80140E157E260E058
S113152070E082E015C08091A8018823D1F4E09195
S11315300901F0910A01E130F10599F0E95BFD4FF1
S11315408081823071F048EE53E060E070E081E029
S11315500E942D0206C021963996C330D10509F0A8
S11315608FCF8DE00E943D01DF91CF911F910F91AC
S1131570FF90EF90DF90CF90BF90AF9008951F93AE
S1131580182F81E090E090931D0180931C0110922C
S11315903E010E9400078FB7F89499271093160113
S11315A08FBF84E00E943D011F91089578941F929B
S11315B00F920FB60F9211242F923F924F925F9287
S11315C06F927F928F929F92AF92BF92CF92DF924F
S11315D0EF92FF920F931F932F933F934F935F9339
S11315E06F937F938F939F93AF93BF93CF93DF9327
S11315F0EF93FF93C6B5D7B58FB7F894282E0E9402
S113160089039B012C1B3D0B442755272B013C01CF
S1131610421A530A640A750A80911C0190911D01B3
S11316208530910521F0069709F0E0C0BFC086E03F
S113163090E090931D0180931C0131E0332E309291
S1131640570110921E0180E00E946104E0915C0148
S1131650F0915D0141AABB27A72D962D852D80AB66
S1131660C301AA27BB2787A7872D9927AA27BB27AA
S113167086A7E0915C01F0915D0185A5882309F4BA
S113168084C06081655077274F01860E971EF40150
S11316902081E1808281A3809927AA27BB27BA2FC2
S11316A0A92F982F8827332744275527522F4427BB
S11316B033272227FF24002711278701FF24EE2444
S11316C02E293F29402B512BBB24CC24DD242A294D
S11316D03B294C295D29822B932BA42BB52B8419F0
S11316E09509A609B7098383292F3A2F4B2F55272C
S11316F022839D014427552721838B2F9927AA27CD
S1131700BB278083C09824E0A40180E090E00E947D
S1131710DB05C09AF4012081E1808281A3809927AE
S1131720AA27BB27BA2FA92F982F88273327442706
S11317305527522F442733272227FF240027112718
S11317408701FF24EE242E293F29402B512BBB2453
S1131750CC24DD242A293B294C295D29822B932B77
S1131760A42BB52B840D951DA61DB71D8383292F8E
S11317703A2F4B2F552722839D0144275527218338
S11317808B2F9927AA27BB278083E0915C01F091D6
S11317905D01818185FF02C030923E0183E00E9499
S11317A0640787B78F7E87BF84997AC010925701E8
S11317B081E00E946104E0915C01F0915D0181810E
S11317C085FF0FC087E090E090931D0180931C017A
S11317D00E94890320E031E040E050E00E9446048A
S11317E003C080E00E94BF0A849B5AC080911E01FE
S11317F0882391F580915701882371F511E01093A6
S113180057010E94610480B320913F02283098F46C
S1131810E0914302E20FFF27E770F070EE0FFF1F25
S1131820EE0FFF1FE551FE4F4082518262827382A8
S11318302F5F20933F0210931E01D093A701C09302
S1131840A60184992DC09927E4E096958795EA9599
S1131850E1F7182F117001C010E080915701813019
S1131860F9F4109257010E94610410921E01112391
S1131870B9F48091A6019091A701C81BD90B2A97AE
S113188078F480913F02882319F0815080933F02BD
S113189080915C0190915D01009711F00E94FA0221
S11318A02FBEFF91EF91DF91CF91BF91AF919F91A7
S11318B08F917F916F915F914F913F912F911F91E4
S11318C00F91FF90EF90DF90CF90BF90AF909F90DB
S11318D08F907F906F905F904F903F902F900F90DC
S11318E00FBE0F901F90189561E081E00E94B40034
S11318F08823E9F48FB7F894282F332780911701B0
S113190090911801892B11F02FBF20C081E090E045
S113191090931801809317012FBFDD9A0E948903C9
S113192024E130E040E050E00E9446040FC062E051
S113193081E00E94CE00882319F089E090E00895A8
S113194061E081E00E94CE00882319F080E090E0FD
S1131950089585E090E00895CF92DF92EF92FF9290
S11319600F931F93CFB6F894DD240E940903DC0182
S1131970CB0166E470E00E9446184BE0E42EF12CA3
S1131980E80EF91EF0925502E09254020E94890377
S113199000271127A80197010E944604CFBE1F917A
S11319A00F91FF90EF90DF90CF9008951F93CF9306
S11319B0DF938FB7F894C82FDD271C2F80911C016B
S11319C090911D010897C9F489E00E94540683E0B0
S11319D00E946407C09A81E090E090931D01809377
S11319E01C018FB7F894992723E0209316018FBF29
S11319F084E00E943D01CFBF30C0C098809158025E
S1131A00882311F085E001C084E00E94540683FD20
S1131A1009C080E00E94540683FF04C085E090E082
S1131A2020E003C083E090E021E090931D018093C7
S1131A301C01C09A1FBF222341F01092260183E0AB
S1131A400E9464070E94AC0C08C00E94890320E431
S1131A5031E040E050E00E944604DF91CF911F91B5
S1131A600895EF92FF920F931F93CF93DF938B010F
S1131A708091A4019091A50186FF40C18F7B8F3393
S1131A8009F08EC1C0912201D09123015881509355
S1131A90500180914E0190914F018530910509F4D8
S1131AA043C08630910509F48AC0029709F01FC12A
S1131AB085E090E090934F0180934E0140913D0169
S1131AC0852F99270196242F3327281739074CF19E
S1131AD0B79906C00E9904C0451B415040933D017F
S1131AE0409150014A32E8F44423A1F0BE016F5FF3
S1131AF07F4F483018F047E050E007C086E090E0A0
S1131B0090934F0180934E01552780E090E00E940E
S1131B10DE0146C110925801C09A84E00E94640715
S1131B20E3C00E94E7073CC186E090E090934F0138
S1131B3080934E0180915B01882309F439C0809120
S1131B40DB018823A9F5898185FF32C08F814E810D
S1131B502FB7F89433276091A0017091A1012FBF92
S1131B609927982F88275527842B952B8617970715
S1131B7059F08F812E819927982F88273327822B1C
S1131B80932B8F5F9F4FA1F489818770813081F4FB
S1131B90C09AC0988AE00E945406C09AC0984091A6
S1131BA0500147502896BE018FE30E946F06F8C08B
S1131BB040915001475055272896BE01A6CFC09AA0
S1131BC080915401882339F484E00E946407809151
S1131BD05401882311F0B7990AC00E9B08C0909154
S1131BE03F02992321F0809150018B3038F4809189
S1131BF02201909123010E94FA023DC0913001F527
S1131C00E0914302FF27EE0FFF1FEE0FFF1FE55188
S1131C10FE4F2081318142815381E0912201F09174
S1131C20230121ABBB27A52F942F832F80ABCA019F
S1131C30AA27BB2787A7252F33274427552726A75D
S1131C40809143029927019668E070E00E945A1837
S1131C508093430280913F02815080933F02882306
S1131C6051F080912201909123010E94FA02109276
S1131C70430210923F0280915001FE01E80FF11DD2
S1131C80808187FF31C0012B79F169816770E09110
S1131C902201F0912301623019F5A0915C01B09109
S1131CA05D01109709F180911C0190911D01079726
S1131CB0D9F4ED019B8183819817B1F487B78F7EA6
S1131CC087BF908181E08CA7E90FF11D8291319645
S1131CD088A780818F7789A780E00E94BF0A04C00B
S1131CE0613011F48BE02AC00E94B20759C01092EF
S1131CF05801C09A84E00E94640752C08E3309F0F0
S1131D004FC0C09A80911C0190911D010897C9F49D
S1131D10C09889E00E945406C09A83E00E94640738
S1131D2081E090E090931D0180931C018FB7F8949B
S1131D30992723E0209316018FBF84E00E943D0180
S1131D402FC080915802882349F484E090E0909356
S1131D501D0180931C010E94D60C22C083E00E94C6
S1131D60640783E090E090931D0180931C010E941E
S1131D700903DC01CB0166E371E00E9446185BE0D5
S1131D80E52EF12CE80EF91EF0923801E0923701AD
S1131D900E94890300271127A80197010E94460485
S1131DA0DF91CF911F910F91FF90EF9008951F92B3
S1131DB00F920FB60F9211242F933F934F935F937B
S1131DC06F937F938F939F93AF93BF93EF93FF93FF
S1131DD02FB1E091CF01F091D001309739F080918B
S1131DE0AE019091AF01E80FF91F20838091AE01FD
S1131DF09091AF0101969093AF018093AE0180E082
S1131E000E94E50040912401509125018091AE018A
S1131E109091AF018417950718F40E9470011CC0BB
S1131E206091CF017091D001809152029091530240
S1131E301092D0011092CF011092530210925202CC
S1131E4010922501109224011092AF011092AE015C
S1131E502FB120E00E94310DFF91EF91BF91AF911E
S1131E609F918F917F916F915F914F913F912F91AE
S1131E700F900FBE0F901F901895AF92BF92CF9204
S1131E80DF92EF92FF920F931F93CF93DF93CDB71F
S1131E90DEB7A8970FB6F894DEBF0FBECDBF87306C
S1131EA009F450C1883098F4833009F4D1C08430E7
S1131EB038F4813009F450C0823008F067C022C081
S1131EC0853009F41CC1863008F035C1C7C08B3099
S1131ED009F464C28C3038F4893009F428C28A3099
S1131EE008F048C267C18D3009F454C48D3008F439
S1131EF01CC48E3009F0CCC4A1C42FBFC9C4C60110
S1131F00B50145C480914402882309F4C1C440E06A
S1131F1051E090914402852F8923C1F0E42FFF27DB
S1131F20EE0FFF1FE055FE4F208131811182108298
S1131F30852F8095982390934402442339F42C569A
S1131F40314009F0A2C41092A8019FC44F5F4830E9
S1131F5008F09EC4550FDDCF10910B01E12FFF2730
S1131F60EE0FFF1FE055FE4FE080F18011821082DA
S1131F700E94AC09112309F08BC45CE6E51651E01C
S1131F80F50609F085C41092A80182C40FB7F8942D
S1131F90112781E00E94610461E0E62EF12CF092A9
S1131FA01D01E0921C0110921E0110923E0110923C
S1131FB052010FBF0FB7F89411270E94EE02F0925E
S1131FC04F01E0924E011092580189B78F7B89BF6F
S1131FD080E488BF8AB780628ABF8AB78F7E8ABF4F
S1131FE089B7806489BF0FBF8FB7F894082F112772
S1131FF08091170190911801049719F483E00E94CD
S113200054060FBF0FB7F8941127C09A80E00E94BE
S113201064070FBF8FB7F894992722E02093D70164
S11320208FBF8091090199279F938F9380E091E05E
S11320309F938F930E94D71848EE53E060E070E0BE
S113204081E00E942D020F900F900F900F9020C4FA
S11320508FB7F89499271092D70172C08FB7F8946C
S11320609927F09016018FBF63E081E00E94CE00B3
S1132070882359F10FB7F894112710921D0110927B
S11320801C0187B78F7E87BF87B78F7D87BF83E0AB
S11320900E946407C09A0FBF0FB7F89411271092DB
S11320A04F0110924E010E94EE02C09A89B78F7BB5
S11320B089BF0FBF1092180110921701DE98DD98A6
S11320C0DE9A83E00E943D0107C08FB7F8949927F8
S11320D022E02093D7018FBF0091AB011091AC0196
S11320E00E94FF018091450290914602892B09F0DC
S11320F0CFC38FEF809313014F2DB801BDC38FB7AA
S1132100F894282F3327122F80915602882309F040
S1132110F4CE81E0809356028091170190911801CA
S1132120049721F481E00E94740503C086E00E94B4
S11321303D011FBFADC38FB7F89499271092560283
S11321408FBFA6C38FB7F894282F33278091190126
S1132150882309F0D2CE2FBF80B3992756E09695F5
S113216087955A95E1F7182F11709091A2018091EB
S1132170A3018917D9F01917C9F484E090E090936A
S11321801801809317018FB7F894992721E02093C1
S113219019018FBF60E070E08DE10E94F8070E9492
S11321A01C06C09AC09882E00E943D011093A301CE
S11321B087E06DC08FB7F894992710910C018FBFF9
S11321C0123009F467C0133030F4112359F0113080
S11321D009F05EC348C0133009F476C0143009F026
S11321E057C3A2C0C0988FB7F894082F11278091C5
S11321F01701909118010297A1F583E090E0909364
S113220018018093170168E170E08DE10E94F807DE
S113221081E08093A2011092190180B3992746E0CE
S1132220969587954A95E1F7817090708093A30104
S113223087E00E943D0181E00E9454066FE772E04E
S11322408CE10E94F8070E9459080E941F0866E565
S11322507AE287E10E94F8076FEF70E885E10E9457
S1132260F8070FBF15C3C09886E00E9454060E9469
S113227059080E941F080E941C06C09AC09883E057
S11322800E945406C09A81E00E94640786E00E947E
S11322903D01FEC2C0988FB7F894082F112760E063
S11322A080E00E94CE00882311F00FBF0AC00FBF48
S11322B083E50E94640180E00E94640180E00E9442
S11322C06401C09A82E02DC08FB7F89499272091B9
S11322D01C018FBF243039F0283041F0223001F541
S11322E00E946A08D5C20E94D60CD2C2C09889E066
S11322F00E945406C09A83E00E9464078FB7F89442
S1132300992721E030E030931D0120931C018FBFF9
S11323108FB7F8949927109316018FBF84E0B7CF35
S113232083E00E946407B4C20E94A106B1C20FB741
S1132330F894112740912401509125016091CF0117
S11323407091D00180915202909153021092D00169
S11323501092CF0110925302109252021092250152
S1132360109224011092AF011092AE0120E00E945D
S1132370310D77CF2FB7F89433278091550180938F
S11323800F0182E080931B012FBF80910F018823EE
S113239009F07EC2B89AC09888E079CFA091220152
S11323A0B0912301DC909D012D0D311DF901808137
S11323B0881F8827881FFD0183A7F90180818F77F3
S11323C0FD0181A721503040F9018081FD0180A7E2
S11323D0A0912201B0912301FD0132818FB7F894BD
S11323E09927209153018FBF222309F490C0832F92
S11323F099279695879596958795837090708230E6
S1132400910541F5878146812FB7F8943327609170
S1132410A0017091A1012FBF9927982F88275527D4
S1132420842B952B8617970719F481E090E06CC0F4
S1132430FD018781268140E050E09927982F882765
S11324403327822B932B8F5F9F4F11F441E050E091
S1132450CA015AC0039709F05FC19E012F5F3F4F25
S11324604CED51E088E0FA010190AF01F9010192CD
S11324709F018150C1F79E012F5D3F4FAE014F5F19
S11324805F4F88E0FA010190AF01F90101929F01C9
S11324908150C1F79E01275F3F4FAE014F5D5F4FF3
S11324A088E0FA010190AF01F90101929F01815086
S11324B0C1F79E012F5E3F4FAE01475F5F4F88E03B
S11324C0FA010190AF01F90101929F018150C1F716
S11324D09E01275E3F4FAE014F5E5F4F88E0FA01D9
S11324E00190AF01F90101929F018150C1F748E0C9
S11324F050E0BE01675E7F4FCD0106960E94C3186F
S1132500892B09F009C103C0882309F405C1FCE043
S1132510FD1508F001C1E0902201F0902301F701BC
S11325202281822F992716E0969587951A95E1F7CF
S1132530039719F468E070E002C062E070E0822F53
S113254099279695879596958795837090700397AC
S113255019F488E090E002C082E090E026E030E0E8
S1132560E20EF31E40E050E020E030E0F701E80F17
S1132570F91F8AEF9FEFE80EF91E05C08191480FFD
S1132580511D2F5F3F4F26173707C4F3F7016381AF
S11325908FEF809347028FB7F894782F20E030E0D4
S11325A0EBE2F1E0808191818417950731F4828117
S11325B0861709F49CC0209347022F5F3F4F339640
S11325C02430310579F77FBF909147023FB7F894E3
S11325D09F3F21F080911F01891799F420911F01D9
S11325E0822F9927FC01EE0FFF1FE80FF91FE55D0D
S11325F0FE4F5183408362832F5F237020931F011A
S11326000CC0892F9927FC01EE0FFF1FE80FF91F5B
S1132610E55DFE4F518340836283832F99278FBFEB
S11326200FB7F8941127C7010E947000FC01908134
S11326300FBFF70183A5882309F46AC09F3309F00B
S113264067C0878146812FB7F894332760911001C2
S1132650709111012FBF9927982F88275527842B14
S1132660952B8617970761F0878126819927982FE4
S113267088273327822B932B8F5F9F4F09F048C005
S1132680F7018385863009F043C0F4E1DF1609F0D1
S11326903FC00091090110910A01F70184850130BE
S11326A0110539F58823A1F5858526859927982F65
S11326B088273327822B932BFC01E95BFD4F21E014
S11326C0208300937A01109279010093780180931A
S11326D07C01292F332720937B0147E06CE671E0CE
S11326E00E94ED098823A1F40093A80111C07FBFC3
S11326F00FC0813069F4095B1D4F82E0F8018083CB
S11327002FB7F89433278BB394E089278BBB2FBF63
S1132710F0922301E09222018FB7F8949927109246
S113272058018FBF0E94B207B3C080915101882322
S113273061F52091E7013091E8014091E901509160
S1132740EA01EFB7F894FF276091D2017091D301A9
S11327508091D4019091D501E0903901F0903A0133
S113276000913B0110913C016E0D7F1D801F911F54
S1132770EFBF2093E7013093E8014093E9015093C0
S1132780EA01109251010E94D4020E9406020E94A2
S1132790300A7EC00E9406025B016C018FB7F89478
S11327A099271092AD018FBF8FEFE82E8FEFF82E8F
S11327B08FEF082F8FE7182F60E0E4EBF1E08085BE
S11327C081FF1CC080819181A281B381A601950102
S11327D0281B390B4A0B5B0BDA01C90124813581B3
S11327E046815781281B390B4A0B5B0B2E153F057D
S11327F0400751071CF479018A0161E0399631E000
S1132800EF3CF307E1F6662309F442C01E141F04EB
S1132810100611060CF073CBE092E701F092E80188
S11328200093E9011093EA0181E080935101A8012A
S11328309701C601B5010E94D4022AC09091620199
S113284080911301981721F1909313019923C9F4EE
S113285000912001109121016091A901C8010E94F9
S1132860B008482F5527442399F08FEF8093130124
S11328706091200170912101F80183850E94D209A1
S113288007C08FEF8093130103C0550F41E041CB84
S1132890A8960FB6F894DEBF0FBECDBFDF91CF91DF
S11328A01F910F91FF90EF90DF90CF90BF90AF906A
S11328B00895809140028F3FB1F0282F3327F9010A
S11328C0E15CFE4F8081809340028F3F11F480933E
S11328D057028FEF80832F3F31F0822F0E943D0FEC
S11328E081E090E0089580E090E008951F93CF93F5
S11328F0DF93CDB7DEB7E0970FB6F894DEBF0FBE17
S1132900CDBF1FB7F8944FE050E06FEF70E08FE356
S113291091E00E94D0188FEF809340028093570279
S113292081E08EBD88E080BF83E083BF8CB59DB518
S11329304AE72CB53DB52817390708F4415044231C
S113294011F0C901F6CF92B782B78917E9F32CB514
S11329503DB592B782B78917E9F38CB59DB5821B53
S1132960930B4096B5E096958795BA95E1F79093C9
S113297042028093410213BE83B78EBD8EB580BFE1
S113298012BE1DBC1CBC8FEF86BF86B780937C0033
S113299080B7992787709070892BD1F7D29AD19AF2
S11329A0D09ADA9AD99AD89A15BA8FEF84BBD49868
S11329B0DC981DBC1CBC87B7846087BF8EB5887F3C
S11329C084608EBD0E9459148823E1F78FEF8093B1
S11329D05601EBE2F1E08FEF9FEF91838083128247
S11329E0339621E0E733F207C1F70E9409036093AD
S11329F0E6018091090190910A010196AA27BB275B
S1132A0080935E0190935F01A0936001B093610194
S1132A1080B7886080BF8BE083BF86EE81BF87B7B5
S1132A20826087BF0E9451028BE092E09093230161
S1132A30809322018E98B89A8C988FEF80936701C7
S1132A401092D6011092D7011092D8011092D90198
S1132A50B89AD69AD59A8FB7F894992720911001ED
S1132A60309111018FBF3093A1012093A0010E94E6
S1132A70740429A73AA74BA75CA76DA77EA78FA7C5
S1132A8098ABDE019196FE01B99688E001900D9213
S1132A908150E1F7DE015196FE01B19688E0019084
S1132AA00D928150E1F7DE015996FE01719688E09E
S1132AB001900D928150E1F7ACEDB1E0FE01799601
S1132AC088E001900D928150E1F7809112019927DD
S1132AD090935A01809359018FE18093D1018AE147
S1132AE08093E4010E94740429A73AA74BA75CA72A
S1132AF06DA77EA78FA798ABDE019196FE01B996CC
S1132B0088E001900D928150E1F7DE011196FE01FB
S1132B10B19688E001900D928150E1F7DE0119969B
S1132B20FE01319688E001900D928150E1F7ACED01
S1132B30B1E0FE01399688E001900D928150E1F7F1
S1132B40ACEDB1E0FD0137969C9180818D9390832B
S1132B50319781E0EF3DF807B9F781E080935301A5
S1132B601092510280935B011092DB010E94591470
S1132B708823E1F7812F99278FBF78940E94740CE2
S1132B808FB7F894482F55274BC087B79927837080
S1132B909070892B19F4E5E0F0E013C080B7992711
S1132BA087709070892BD1F781B792B7891B8C30CD
S1132BB030F082B7853F18F4E3E0F0E002C0E2E0D1
S1132BC0F0E087B7887BC1F480917D008B7FA1F40E
S1132BD06E9912C08AB190919A00892B887161F420
S1132BE08091740082FD08C0379B03C081E090E0AF
S1132BF005C085E090E002C080E090E025B78E1724
S1132C0008F4E82FFF27E457FF4FE491237E206266
S1132C10E22BE5BF78948895F89485B78F7D85BFBE
S1132C20809140028F3F09F4B0CF282F3327F90158
S1132C30E15CFE4F8081809340028F3F11F48093CA
S1132C4057028FEF80832F3F09F49FCF4FBF822F0E
S1132C500E943D0F95CF78941F920F920FB60F925A
S1132C6011241F932F933F934F935F936F937F93FD
S1132C708F939F93AF93BF93EF93FF9387B78F7E09
S1132C8087BF78941FB7F894809163019091640191
S1132C90A0916501B09166010097A105B10509F005
S1132CA051C080911C0190911D018530910561F105
S1132CB08630910530F48330910549F0049781F50D
S1132CC01AC087309105F1F0089751F514C0869B1E
S1132CD00FC084E090E090931D0180931C010E943A
S1132CE0890327E030E040E050E00E94460418C029
S1132CF00E94AC0C15C00E94CC05882389F40E9464
S1132D00D60C0EC080E00AC089E00E94540681E01F
S1132D100E94610483E00E94640787E00E94BF0A66
S1132D208091170190911801019771F482E090E06D
S1132D309093180180931701DE98DE9A80E00E9438
S1132D40740502C00E94A603812F99278FBFFF91AB
S1132D50EF91BF91AF919F918F917F916F915F910F
S1132D604F913F912F911F910F900FBE0F901F9085
S1132D701895ACE2B0E0EFEBF6E10C948C18222E3F
S1132D80332E442E552E662E772E882E992EFE0134
S1132D903196A8E01192AA95E9F729823A824B82EA
S1132DA05C826D827E828F829886FE013996B8E0BD
S1132DB01192BA95E9F7A986BA86CB86DC86ED86A8
S1132DC0FE860F87188B89819A81AB81BC8189A784
S1132DD09AA7ABA7BCA77C018D018FEF9FEFA0E062
S1132DE0B0E0E822F9220A231B2389A59AA5ABA502
S1132DF0BCA51D014424552489859A85AB85BC85D1
S1132E008DA39EA3AFA3B8A75C016D018FEF9FEFC5
S1132E10A0E0B0E0A822B922CA22DB228DA19EA1A3
S1132E20AFA1B8A53D0188249924C801B701A60122
S1132E3095010E946D1869A37AA38BA39CA3C80172
S1132E40B701A40193010E946D187B018C01C2019A
S1132E50B101A60195010E946D185B016C01C201CC
S1132E60B101A40193010E946D183B014C01EA0CCD
S1132E70FB1C0C1D1D1D89A19AA1ABA1BCA19D0128
S1132E80442755272E0D3F1D401F511F2A153B0572
S1132E904C055D0540F480E090E0A1E0B0E0680EF0
S1132EA0791E8A1E9B1ECA01AA27BB27860D971D61
S1132EB0A81DB91D8D8F9E8FAF8FB8A3A90133278D
S1132EC0222789A19AA1ABA1BCA1A070B070280F40
S1132ED0391F4A1F5B1F298F3A8F4B8F5C8FA98C38
S1132EE0BA8CCB8CDC8CED8CFE8C0F8D18A1FE0182
S1132EF0719698E011929A95E9F7ED8AFE8A0F8B04
S1132F00188F2D813E814F8158856DA17EA18FA19F
S1132F1098A50E946D183B014C012D853E854F8577
S1132F20588969A57AA58BA59CA50E946D182D8941
S1132F303E894F89588D260F371F481F591F260D6C
S1132F40371D481D591D2D8B3E8B4F8B588F6D8817
S1132F507E888F88988C2A2D3B2D4C2D5D2D662DD7
S1132F60772D882D992DE2E1AC960C94A818A0E158
S1132F70B0E0EDEBF7E10C948C18222E332E442EA6
S1132F80552E662E772E882E992E002309F466C0BE
S1132F9088E0FE01319611928A95E9F729833A83F4
S1132FA04B835C836D837E838F829887E0E2E01B92
S1132FB01E16CCF52D813E814F815885602F7727D1
S1132FC067FD7095DA01C901062E04C0B695A79570
S1132FD0979587950A94D2F78D879E87AF87B88B8C
S1132FE004C0220F331F441F551FEA95D2F789816D
S1132FF09A81AB81BC8104C0B695A79597958795B6
S11330006A95D2F7282B392B4A2B5B2B29873A87D1
S11330104B875C8729843A844B845C846D847E84EA
S11330208F8498881BC01D861E861F86188A2E2FA3
S1133030332727FD3095309521953F4F8D819E8113
S1133040AF81B88504C0B695A795979587952A95BD
S1133050D2F789879A87AB87BC87DCCF222D332DA3
S1133060442D552D662D772D882D992DE2E16096FE
S11330700C94A818991B79E004C0991F961708F0BE
S1133080961B881F7A95C9F780950895AA1BBB1BC8
S113309051E107C0AA1FBB1FA617B70710F0A61B54
S11330A0B70B881F991F5A95A9F780959095BC0175
S11330B0CD01089597FB092E07260AD077FD04D089
S11330C0E5DF06D000201AF4709561957F4F0895CE
S11330D0F6F7909581959F4F0895629FD001739F55
S11330E0F001829FE00DF11D649FE00DF11D929FA0
S11330F0F00D839FF00D749FF00D659FF00D9927DF
S1133100729FB00DE11DF91F639FB00DE11DF91F02
S1133110BD01CF01112408952F923F924F925F92E7
S11331206F927F928F929F92AF92BF92CF92DF92D3
S1133130EF92FF920F931F93CF93DF93CDB7DEB738
S1133140CA1BDB0B0FB6F894DEBF0FBECDBF0994CC
S11331502A88398848885F846E847D848C849B8423
S1133160AA84B984C884DF80EE80FD800C811B8131
S1133170AA81B981CE0FD11D0FB6F894DEBF0FBE60
S1133180CDBFED010895FB01DC0104C08D910190D8
S1133190801921F441505040C8F7881B990B0895B9
S11331A0DC0101C06D9341505040E0F70895A2E066
S11331B0B0E0EDEDF8E10C949C18FE0137966191B6
S11331C07191FA83E983AF0180915B0290915C0273
S11331D00E94EE18E2E022960C94B818ABE0B0E03E
S11331E0E4EFF8E10C948E183C014B016A01FC01F8
S11331F017821682838181FD03C08FEF9FEFDAC1AE
S1133200F3013381F40133FD859133FF81914F0143
S1133210882309F4CCC1853239F433FD859133FF19
S113322081914F01853229F4B30199270E94F41A40
S1133230E7CF00E0442455244AE00032B0F48B3256
S113324069F08C3228F4803251F0833271F40BC06F
S11332508D3239F0803349F4016028C00260046083
S113326025C0086023C0006121C007FD29C0282FA4
S113327020532A3078F406FF06C0549EC00111245E
S1133280522E580E13C0449EC0011124422E480EE3
S113329000620CC08E3221F406FD89C1006406C0B0
S11332A08C3611F4006802C0883651F4F40133FD01
S11332B0859133FF81914F01882309F46FC0BDCFFD
S11332C0982F8554833018F08052833038F424E0EA
S11332D030E0C20ED31E8FE389830FC0933631F0E2
S11332E0933799F0933509F05BC023C0F6018081D0
S11332F0898322E030E0C20ED31E7E010894E11CD3
S1133300F11C51E0A52EB12C12C0F601E080F18031
S113331006FD03C06FEF7FEF02C0652D772722E023
S113332030E0C20ED31EC7010E94E91A5C010F7778
S113333013C0F601E080F18006FD03C06FEF7FEF5C
S113334002C0652D772722E030E0C20ED31EC701EC
S11333500E94DE1A5C01006803FF07C01BC0B301B2
S113336080E290E00E94F41A4A94842D9927A816CA
S1133370B906A8F30FC0F70107FD859107FF8191F6
S11333807F01B30199270E94F41A41104A940894CA
S1133390A108B108A114B10471F706C190E03EC0C0
S11333A0943611F0993691F507FF0AC0F601608151
S11333B071818281938124E030E0C20ED31E0DC05E
S11333C0F601808191819C01B901882777FD809560
S11333D0982F42E050E0C40ED51E4FE6B42EB02222
S11333E097FF09C090958095709561957F4F8F4F99
S11333F09F4F50E8B52A8E010F5F1F4F2AE030E03F
S1133400A8010E94211BA82EA01A4DC0953731F4A3
S11334103FEEF32EF0222AE030E023C029EFF22E13
S1133420F0229F3661F0903720F4983509F0BFC040
S113343012C0903739F0983709F0B9C005C028E0B8
S113344030E00FC080E1F82AF4FE02C094E0F92ACB
S113345020E130E006C0F4FE02C0E6E0FE2A20E1EE
S113346032E0F7FE0AC0F6016081718182819381A6
S113347044E050E0C40ED51E0BC0F601808191815A
S1133480AC01BA0188279927E2E0F0E0CE0EDF1EF6
S11334908E010F5F1F4FA8010E94211BA82EA01AA6
S11334A08FE7B82EBF20B6FE10C0FEEFBF22A514D2
S11334B060F42B2D332724FF1AC022FF02C0052DF0
S11334C009C02FEEB222052D01C00A2D2B2D332762
S11334D024FF0EC0FE01EA0DF11D8081803319F432
S11334E039EEB32209C00F5F22FF06C004C0052DC8
S11334F0822F867809F00F5FEB2CFF24E3FC14C0C5
S1133500E0FE0FC0041510F05A2C0BC0542C501AB6
S11335105A0C042D06C0B30180E290E00E94F41A14
S11335200F5F0415C0F304C0041510F4401A01C061
S11335304424E4FE10C0B30180E390E00E94F41A36
S1133540E2FE1EC0E1FE03C088E590E002C088E709
S113355090E0B3010CC08E2D867891F0E1FE02C09C
S11335608BE201C080E2B7FC8DE2B30199270E948F
S1133570F41A06C0B30180E390E00E94F41A5A944E
S1133580A514C0F3AA94FE01EA0DF11D8181B301D3
S113359099270E94F41AAA2039F0F4CFB30180E2EB
S11335A090E00E94F41A4A944420C1F729CEF30112
S11335B086819781E0E12B960C94AA18FC01059072
S11335C0615070400110D8F7809590958E0F9F1F21
S11335D00895FC016150704001900110D8F7809566
S11335E090958E0F9F1F08950F931F93CF93DF9392
S11335F08C01EB018B81992781FF1BC082FF0DC0D9
S11336002E813F818C819D812817390764F4E881DC
S1133610F9810193F983E88306C0E885F985802F51
S11336200995892B31F48E819F8101969F838E8326
S113363002C00FEF1FEFC801DF91CF911F910F91CF
S11336400895FA01AA27283051F1203181F1E89434
S11336506F936E7F6E5F7F4F8F4F9F4FAF4FB1E081
S11336603ED0B4E03CD0670F781F891F9A1FA11D7C
S1133670680F791F8A1F911DA11D6A0F711D811D7D
S1133680911DA11D20D009F468943F912AE0269F42
S113369011243019305D3193DEF6CF010895462FA1
S11336A04770405D4193B3E00FD0C9F7F6CF462F82
S11336B04F70405D4A3318F0495D31FD40524193EB
S11336C002D0A9F7EACFB4E0A695979587957795A8
S11336D06795BA95C9F700976105710508959B012F
S11336E0AC010A2E06945795479537952795BA95B8
S11336F0C9F7620F731F841F951FA01D0895FFCF84
S113370069643A202564200A00010001FFFFFFFFDD
S1093710010022FFFFFF8F
S9030000FC
