S01800006275696C642F6D6963617A2F6D61696E2E73726563E5
S11300000C9449000C94EB040C94F5040C94FF0438
S11300100C9409050C9413050C941D050C94CA0644
S11300200C9427050C9468000C9468000C94D60A70
S11300300C941C160C94B5040C94CB040C9431054C
S11300400C94A4040C94D70E0C9468000C946800CF
S11300500C9468000C9468000C9468000C9468007C
S11300600C94C0040C9468000C9468000C94680010
S11300700C9468000C9468000C9468000C9468005C
S11300800C9468000C9468000C94680000081C1818
S1130090141011241FBECFEFD0E1DEBFCDBF11E09D
S11300A0A0E0B1E0E2E9F1E300E00BBF02C0079099
S11300B00D92AE30B107D9F712E0AEE0B1E001C065
S11300C01D92A135B107E1F70E9467140C94C8187A
S11300D00C9400008FB7F894992708958FBF089562
S11300E0FC0182819927582F442781819927482B25
S11300F0592BCA01892F992786958695837090700C
S11301008230910559F08330910559F0892B19F407
S113011020E030E008C02CE93FEF05C022E030E0E9
S113012002C028E030E0CA0184E0989F812D99271D
S113013011248230910559F08330910559F0892BAF
S113014019F480E090E008C08CE99FEF05C082E0DC
S113015090E002C088E090E0280F391F2A5F3F4FEB
S1130160CF01820F931F0895282F9FB7F894662319
S113017049F0E82FFF27E952FE4F8081882311F0D0
S113018021E006C0E22FFF27E952FE4F608320E002
S1130190892F99278FBF822F99270895E82F8FB72A
S11301A0F894282F332790E0FF27E952FE4F8081EF
S11301B0861709F491E02FBF892F99270895882382
S11301C011F06E9A08956E980895882311F06F9A2D
S11301D008956F98089580E00E94DF00BA9ABB9852
S11301E0B99AB89A6C9A80E00E94E5006B986A9874
S11301F081E00E94DF00709A8DB18C7F8DB90895E3
S11302000F931F93CF93DF93182F8FB7F894C82FB2
S1130210DD270C2F61E080E00E94B400882321F0E8
S1130220CFBF85E090E024C0809106018823A1F42B
S113023080911C01823081F409C082E080931C010A
S1130240109206010E94EB00B89AC0981093030123
S113025080E00FBF99270CC080911C01882369F3AB
S11302608FB7F89499271092D7018FBF81E0F1CF0F
S1130270DF91CF911F910F910895282F9FB7F89484
S1130280E82FFF27E05CFE4F80818F3F81F4E091EF
S11302904F02E21771F40BC02093410204C0FF2700
S11302A0E05CFE4F208320934F0220E007C025E04E
S11302B005C0809141028F3F91F7EECF892F992796
S11302C08FBF822F992708951F93182F81E00E94D2
S11302D0DF001FB9779BFECF8FB199271F91089537
S11302E08F929F92AF92BF92CF92DF92EF92FF9242
S11302F00F931F93CF93DF938FB7F8949927C090F0
S11303004A02D0904B028090D0019090D101C091CC
S1130310AF01D091B0012091250130912601EAE08E
S1130320AE2EB12CAC0EBD1E2A153B0508F45901A6
S11303308FBF7401EC0EFD1E86010C0F1D1F14C02F
S1130340C114D10419F0F801808101C080E00E9439
S113035064018114910411F0F701808321960894BB
S1130360E11CF11C0F5F1F4FC5010197C817D90786
S113037038F381E00E94E5009FB7F894C114D104DA
S113038031F0CC0EDD1EF60180818FB901C01FB89B
S1130390D093B001C093AF01892F99278FBF80E01C
S11303A090E0DF91CF911F910F91FF90EF90DF903C
S11303B0CF90BF90AF909F908F9008952FB7F894EF
S11303C03327509326014093250190934B02809349
S11303D04A027093D1016093D0011092B00110923F
S11303E0AF012FBF452B29F08FB10E9470019927CF
S11303F0089589E00E943D0180E090E008958FB760
S1130400F89499271092D9018FBF08957FB7F89473
S113041062B7209128013091290140912A0150911D
S11304202B0106B601FE0FC081B792B7280F311D0C
S1130430411D511D2F5F3F4F4F4F5F4F290F311DFE
S1130440411D511D04C0260F311D411D511D872F13
S113045099278FBFCA01B9010895DF92EF92FF92E5
S11304600F931F93D82E7A018B010E94060229E074
S1130470D29EF0011124EB54FE4F6083718382837A
S11304809383E482F5820683178380858360808763
S11304908DE00E943D011F910F91FF90EF90DF903E
S11304A00895DF92EF92FF920F931F938FB7F89402
S11304B0282F3327D22E91B782B746B7981711F059
S11304C041FF02C02FBF6AC08091AE018823E1F1D1
S11304D00E940602E090D301F090D4010091D5016E
S11304E01091D60120913A0130913B0140913C0199
S11304F050913D016E197F09800B910B62177307B0
S11305008407950720F01092AE0171E01EC02E0DF5
S11305103F1D401F511F8091280190912901A091F6
S11305202A01B0912B01281B390B4A0B5B0B273E88
S113053031054105510540F4822F223010F070E05E
S113054005C070E082E002C070E086EE682F615062
S113055000B601FCFDCF82B7681709F46F5F2091E4
S113056028013091290140912A0150912B01DA018F
S1130570C9010196A11DB11D860F911DA11DB11DBB
S113058082179307A407B50710F4622F609561BF23
S1130590DFBE772319F08CE00E943D011F910F917B
S11305A0FF90EF90DF900895AFB7F894BB27E1E098
S11305B0E093AE016093D3017093D4018093D5018D
S11305C09093D60120933A0130933B0140933C0130
S11305D050933D01AFBF0E945102089580E880937B
S11305E03E0110925901109244021092400210925E
S11305F055010895CF93DF93FC0115A6DC019E9667
S1130600ED011B821A82198280E886A7DF91CF91BF
S113061008952F923F924F925F926F927F928F92A2
S11306209F92AF92BF92CF92DF92EF92FF920F937D
S11306301F93CF93DF93CDB7DEB728970FB6F89407
S1130640DEBF0FBECDBF20905F01309060014090AF
S1130650610150906201662477248824BEE4AB2EA5
S1130660A3E8BA2ECC24DD24EE24FF2400E010E01D
S1130670222D332D442D552D662D772D882D90E078
S11306800E94AA1629833A834B835C836D837E83FD
S11306908F839887822E932EA42EB52E24013501A4
S11306A000E20E94A817A22EB32EC42ED52EC30199
S11306B0B20196958795779567956A0D7B1D8C1D7C
S11306C09D1D97FF05C09F776F5F7F4F8F4F9F4F93
S11306D060935F0170936001809361019093620164
S11306E028960FB6F894DEBF0FBECDBFDF91CF9131
S11306F01F910F91FF90EF90DF90CF90BF90AF903C
S11307009F908F907F906F905F904F903F902F902D
S113071008958FB7F8946091B3017091B4012CB52A
S11307203DB506B602FE04C06F5F7F4F2CB53DB5E4
S113073099278FBF88279927CB01772766274427D6
S11307405527622B732B842B952B0895EF92FF92E0
S11307500F931F930E9489037B018C0120916901EF
S113076030916A0140916B0150916C018091640158
S113077090916501A0916601B0916701820F931F6A
S1130780A41FB51FE216F3060407150730F08217FD
S11307909307A407B50758F005C082179307A40769
S11307A0B507E0F5E816F9060A071B07B8F59C013A
S11307B0AD012E193F09400B510B213060E836077B
S11307C060E0460760E0560768F180E090E8A0E04A
S11307D0B0E0E80EF91E0A1F1B1FE0926901F092B7
S11307E06A0100936B0110936C0180E090E8AFEF15
S11307F0BFEFE80EF91E0A1F1B1F2050304840406F
S113080050402093640130936501409366015093F6
S1130810670120E030E840E050E014C020E030E020
S113082040E050E08093690190936A01A0936B01CA
S1130830B0936C01109264011092650110926601EC
S113084010926701A901B7012CB53DB5C9018E19F4
S11308509F0903968417950720F0B9016D5F7F4FB8
S113086002C0640F751F6115710511F461E070E039
S1130870615070407BBD6ABD80E186BF87B78061EF
S113088087BF1F910F91FF90EF9008950F931F93CF
S11308900FB7F89411276093690170936A018093EC
S11308A06B0190936C012093640130936501409334
S11308B06601509367010E94A6030FBF1F910F9119
S11308C0089597B79F7D97BF90E296BF882319F04C
S11308D08EB5806402C08EB58F7B8EBD87B7806273
S11308E087BF80E090E00895AF92BF92CF92DF92ED
S11308F0EF92FF920F931F93CF93DF93CDB7DEB7A1
S113090028970FB6F894DEBF0FBECDBF20E070E08D
S1130910E0910001F091010132E14DE65CE46FE405
S1130920809101019E2F28960FB6F894DEBF0FBE6A
S1130930CDBFDF91CF911F910F91FF90EF90DF908A
S1130940CF90BF90AF9008951F920F920FB60F9261
S113095011248F9383B783BF00B600FCFDCF8F9122
S11309600F900FBE0F901F90189578941F920F92BE
S11309700FB60F9211240F900FBE0F901F90189571
S113098078941F920F920FB60F9211240F900FBEFE
S11309900F901F90189578941F920F920FB60F9294
S11309A011242F933F938F939F932FB7F89433275A
S11309B08091B3019091B40101969093B401809316
S11309C0B3012FBF9F918F913F912F910F900FBE35
S11309D00F901F9018951F920F920FB60F9211242B
S11309E00F900FBE0F901F9018951F920F920FB685
S11309F00F9211240F900FBE0F901F9018951F9205
S1130A000F920FB60F9211240F900FBE0F901F90EC
S1130A1018951F920F920FB60F9211240F900FBECC
S1130A200F901F9018951F920F920FB60F921124DA
S1130A300F900FBE0F901F9018951F920F920FB634
S1130A400F9211240F900FBE0F901F9018951F92B4
S1130A500F920FB60F9211240F900FBE0F901F909C
S1130A6018951F920F920FB60F9211242F933F9354
S1130A704F935F936F937F938F939F93AF93BF93A2
S1130A80EF93FF9383B783BF00B600FCFDCF81B71C
S1130A9099270196AA27BB27209128013091290183
S1130AA040912A0150912B01280F391F4A1F5B1FC7
S1130AB0209328013093290140932A0150932B015C
S1130AC078940E945102FF91EF91BF91AF919F9151
S1130AD08F917F916F915F914F913F912F910F90E3
S1130AE00FBE0F901F9018950F931F93182F0FB7D9
S1130AF0F89461E080E00E94B400882371F51093BB
S1130B000301809106018823A9F580911C0182309C
S1130B1089F588E00CC00E94EB0080911C018823B9
S1130B2049F481E080931C01109256018AE00E94EE
S1130B303D012AC0809168018F3F31F5E0910501A4
S1130B40EE2311F11CC01092040104C0FF27E859E0
S1130B50FE4F10821092050117C081E090E002C0A0
S1130B60880F991F1A95E2F720911B01282B2093D7
S1130B701B010AC080911C018823E1F6CCCF80912F
S1130B8004018F3F19F7DFCF802F99278FBF80E0B3
S1130B9090E01F910F9108951F9383E00E9400013C
S1130BA09927182F882319F083E00E947405812F58
S1130BB099271F910895CF92DF92EF92FF920F939E
S1130BC01F93CF93DF938C01F62E6A01E22E8FB729
S1130BD0F894C82FDD2760E080E00E94CE008823CF
S1130BE021F0CFBF80E090E01EC0CFBF0F0D111DDC
S1130BF0802F80680E946401F82E16950795802F37
S1130C00807C0E9464010E2D0AC0EE2DFF27E01B9C
S1130C10F109EC0DFD1D80810E9464010150002347
S1130C20A1F78F2D9927DF91CF911F910F91FF90FD
S1130C30EF90DF90CF900895CF93DF93CDB7DEB7D9
S1130C402C970FB6F894DEBF0FBECDBF8FB7F894C4
S1130C50282FAE014F5F5F4FDA01EDEDF1E088E040
S1130C6001900D928150E1F780915A0190915B01BE
S1130C708987892F99278A878091A1019091A20160
S1130C808B87892F99278C872FBF2CE060E080E623
S1130C9091E00E94DB052C960FB6F894DEBF0FBEE0
S1130CA0CDBFDF91CF9108951F93CF93DF93182F7A
S1130CB08FB7F894C82FDD2760E080E00E94CE0053
S1130CC0882321F0CFBF80E090E005C0CFBF812F03
S1130CD00E9464019927DF91CF911F910895EF92AB
S1130CE0FF920F931F93CF93DF93182F7B01042F51
S1130CF08FB7F894C82FDD2760E080E00E94CE0013
S1130D00882321F0CFBF80E090E014C0CFBF1064EF
S1130D10812F99279093A6018093A5010E946401D5
S1130D20182F402F5527B70180E090E00E94DE0184
S1130D30812F9927DF91CF911F910F91FF90EF9011
S1130D400895C098609123017091240141E08FE3DC
S1130D500E946F06089582E090E090935001809382
S1130D604F0181E08093590120E030E0809103013C
S1130D70843011F421E030E0232B29F484E00E9434
S1130D800001882319F40E94A106089584E00E94BA
S1130D90740508951F920F920FB60F9211242F938A
S1130DA03F934F935F936F937F938F939F93AF93EF
S1130DB0BF93EF93FF9380914F019091500101975E
S1130DC049F482E090E09093500180934F010E9497
S1130DD0AB0605C0809155018F5F80935501FF914B
S1130DE0EF91BF91AF919F918F917F916F915F919F
S1130DF04F913F912F910F900FBE0F901F90189518
S1130E001F9380911B01882309F04BC010910301AB
S1130E101F3F09F046C060E00E94CE00882309F419
S1130E2040C081E08093E60180913F018823E1F195
S1130E301092E60185E090E045C0923069F5C09AD1
S1130E408091040120E030E08F3F11F421E030E094
S1130E50232BE9F4109306018F3F19F42FEF30E0B0
S1130E600DC0282F3327F901E859FE4F8081809364
S1130E7004018F3F11F41093050110832093560150
S1130E8081E080931C018AE00E943D0105C010931B
S1130E90060110921C0111C080911C01882369F085
S1130EA00FC081E090E00EC08091060190911C017A
S1130EB0882319F2923021F0EFCF80E00E94DF0006
S1130EC080E090E01F9108951F93CF93DF939FB725
S1130ED0F894C92FDD271C2F90910301981721F056
S1130EE0CFBF81E090E03AC08FEF8093030130914F
S1130EF01B013323F1F48FB7F89499271092D7018B
S1130F008FBF0E940007CFBF11C02093030181E06F
S1130F1090E002C0880F991F4A95E2F78095382324
S1130F2030931B0188E00E943D011FBF80E090E0E8
S1130F3015C080E065E0E32FFF270E942B18292FBE
S1130F40492F5527CF01042E02C0959587950A9401
S1130F50E2F780FDDACF822F8F5FEFCFDF91CF9161
S1130F601F9108951F93CF93DF938FB7F894C82FE1
S1130F70DD271C2F80914F0190915001892B29F47A
S1130F8084E00E946407CFBF1EC010925901809173
S1130F905501882311F0B79904C00E9908C088231D
S1130FA019F08150809355010E94AB060BC081E07B
S1130FB090E09093500180934F011092550184E08A
S1130FC00E9464071FBFDF91CF911F9108950E9473
S1130FD0EE02C09AC09888E00E94540688E00E94FD
S1130FE05406C09A84E00E9464070E94B2070895E0
S1130FF0FF920F931F93CF93DF93F82E8B018FB73C
S1131000F894C82FDD2760E080E00E94CE0088239A
S113101021F0CFBF80E090E00CC0CFBF8F2D0E94A5
S11310206401812F99270E946401802F0E9464012A
S11310309927DF91CF911F910F91FF9008951F93EE
S11310401FB7F89480915401882319F460E070E08C
S113105009C060E080914902882309F461E081E0DD
S11310606827772780915C01882319F480E090E059
S11310700AC090E08091DC01882309F491E081E0CA
S11310809827892F9927762F6627770F770F770F61
S1131090F4E0880F991FFA95E1F7826E9262682B4B
S11310A0792B81E10E94F807812F99278FBF1F9127
S11310B008958FB7F89499276091E5018FBF85E073
S11310C0689FB0011124625D7E4F706488E10E94C4
S11310D0F8070895EF92FF921F93CF93DF93E09068
S11310E05D01F0905E01F70182A59927182F8823EE
S11310F009F41FE1C09880915301811749F0612FD1
S113110077276F717070606E706885E10E94F807D0
S113111010935301F70110818FB7F894C82FDD277E
S113112060E080E00E94CE00882311F0CFBF12C09F
S1131130CFBF8EE390E09093A6018093A5018EE348
S11311400E9464011150412F552760E070E0C701EF
S11311500E94DE01DF91CF911F91FF90EF900895DF
S11311600F931F93CF93DF93EC010FB7F8941127DC
S11311700E947000FC018FE380830FBF109247022E
S11311801092460261E082E00E94B400882319F0C4
S113119085E090E072C08091E7018F5F8093E70162
S11311A081508B838FB7F894082F112762E081E078
S11311B00E94CE00882329F40FBF0E94FF0181E022
S11311C05BC08FB7F894992724E02093D8018FBF90
S11311D0D093AD01C093AC010FBFFE013196818164
S11311E029819927982F88273327822B932B807264
S11311F09C7C8983892F992781832981982F88272B
S113120033272164822B932B8983892F9927818308
S11312101CA618A619A619AA18AA1FA680E88EA7A4
S113122061E06093DB014091AC015091AD018FB757
S1131230F894282F332780911D0190911E01883046
S1131240910511F0019711F02FBF15C082E090E0D5
S113125090931E0180931D016093500250935E0190
S113126040935D01109227012FBF0E94CC05882373
S113127011F40E946A0880E09927DF91CF911F91B1
S11312800F910895CF93DF93DA01422F2D3118F097
S113129082E090E05EC0ED018B876E83872F9927F3
S11312A08F832FB7F894332780915A0190915B0173
S11312B02FBFFD018483892F992785832FB7F89445
S11312C0332780910701909108012FBF8887892FC8
S11312D0992789873196818129819927982F882791
S11312E0332720643868822B932B8983892F99278D
S11312F08183435F4C934D5080910A01882359F0B8
S113130010920A01642FCD010E94B0089927282F5A
S11313108823A9F417C0842F99279093AB01809355
S1131320AA01B0932201A09321018EE00E943D0105
S113133080910A01882349F489E090E00AC08FEF84
S113134080930A01822F992704C01092630180E0E0
S113135090E0DF91CF91089510920201E091B101E4
S1131360F091B201309721F08091450280FF08C0CE
S113137081E080930201089581E00E943D01089577
S113138020812D50332767817727762F6627868122
S11313909927682B792BAF0183850E944209882302
S11313A059F70895CF93DF9380910201882391F434
S11313B0C091B101D091B201C617D70759F4109268
S11313C0B2011092B1010E94AC09CD56D14011F482
S11313D01092A901DF91CF910895CF93DF93FB0180
S11313E0DB0116968683892F9927ED01898386E090
S11313F083878091B1019091B201892B19F085E026
S113140090E02BC0F093B201E093B101435F4083BD
S11314104D5080910201882319F480E090E01DC0B2
S11314208385ED0169817727762F66272681332707
S1131430622B732B10920201242FAF010E944209E8
S11314409927282F882339F081E080930201109294
S1131450B2011092B101822F9927DF91CF910895A3
S1131460AF92BF92CF92DF92EF92FF920F931F93AE
S1131470CF93DF935B016C01C0E0D0E0E5EBF1E0DA
S1131480608561FF68C02081318142815381E4809D
S1131490F58006811781D601C501821B930BA40B2D
S11314A0B50B8E159F05A007B10708F454C060FF63
S11314B003C06D7F608708C02E0D3F1D401F511F64
S11314C02083318342835383C13021F0C23009F039
S11314D048C029C08091A901882309F042C08091A5
S11314E00001909101010097C1F080937B01892F45
S11314F0992780937A011092790110927D011092BC
S11315007C0147E06DE671E080E090E00E94ED0927
S1131510882319F481E08093A90140E157E260E057
S113152070E082E015C08091A9018823D1F4E09194
S11315300001F0910101E130F10599F0E35FFE4F04
S11315408081823071F048EE53E060E070E081E029
S11315500E942D0206C021963996C330D10509F0A8
S11315608FCF8DE00E943D01DF91CF911F910F91AC
S1131570FF90EF90DF90CF90BF90AF9008951F93AE
S1131580182F81E090E090931E0180931D0110922A
S11315903F010E9400078FB7F89499271093170111
S11315A08FBF84E00E943D011F91089578941F929B
S11315B00F920FB60F9211242F923F924F925F9287
S11315C06F927F928F929F92AF92BF92CF92DF924F
S11315D0EF92FF920F931F932F933F934F935F9339
S11315E06F937F938F939F93AF93BF93CF93DF9327
S11315F0EF93FF93C6B5D7B58FB7F894282E0E9402
S113160089039B012C1B3D0B442755272B013C01CF
S1131610421A530A640A750A80911D0190911E01B1
S11316208530910521F0069709F0E0C0BFC086E03F
S113163090E090931E0180931D0131E0332E30928F
S1131640580110921F0180E00E946104E0915D0145
S1131650F0915E0141AABB27A72D962D852D80AB65
S1131660C301AA27BB2787A7872D9927AA27BB27AA
S113167086A7E0915D01F0915E0185A5882309F4B8
S113168084C06081655077274F01860E971EF40150
S11316902081E1808281A3809927AA27BB27BA2FC2
S11316A0A92F982F8827332744275527522F4427BB
S11316B033272227FF24002711278701FF24EE2444
S11316C02E293F29402B512BBB24CC24DD242A294D
S11316D03B294C295D29822B932BA42BB52B8419F0
S11316E09509A609B7098383292F3A2F4B2F55272C
S11316F022839D014427552721838B2F9927AA27CD
S1131700BB278083C09824E0A40180E090E00E947D
S1131710DB05C09AF4012081E1808281A3809927AE
S1131720AA27BB27BA2FA92F982F88273327442706
S11317305527522F442733272227FF240027112718
S11317408701FF24EE242E293F29402B512BBB2453
S1131750CC24DD242A293B294C295D29822B932B77
S1131760A42BB52B840D951DA61DB71D8383292F8E
S11317703A2F4B2F552722839D0144275527218338
S11317808B2F9927AA27BB278083E0915D01F091D5
S11317905E01818185FF02C030923F0183E00E9497
S11317A0640787B78F7E87BF84997AC010925801E7
S11317B081E00E946104E0915D01F0915E0181810C
S11317C085FF0FC087E090E090931E0180931D0178
S11317D00E94890320E031E040E050E00E9446048A
S11317E003C080E00E94BF0A849B5AC080911F01FD
S11317F0882391F580915801882371F511E01093A5
S113180058010E94610480B320914002283098F46A
S1131810E0914402E20FFF27E770F070EE0FFF1F24
S1131820EE0FFF1FE451FE4F4082518262827382A9
S11318302F5F2093400210931F01D093A801C093FF
S1131840A70184992DC09927E4E096958795EA9598
S1131850E1F7182F117001C010E080915801813018
S1131860F9F4109258010E94610410921F0111238F
S1131870B9F48091A7019091A801C81BD90B2A97AC
S113188078F480914002882319F0815080934002BB
S113189080915D0190915E01009711F00E94FA021F
S11318A02FBEFF91EF91DF91CF91BF91AF919F91A7
S11318B08F917F916F915F914F913F912F911F91E4
S11318C00F91FF90EF90DF90CF90BF90AF909F90DB
S11318D08F907F906F905F904F903F902F900F90DC
S11318E00FBE0F901F90189561E081E00E94B40034
S11318F08823E9F48FB7F894282F332780911801AF
S113190090911901892B11F02FBF20C081E090E044
S113191090931901809318012FBFDD9A0E948903C7
S113192024E130E040E050E00E9446040FC062E051
S113193081E00E94CE00882319F089E090E00895A8
S113194061E081E00E94CE00882319F080E090E0FD
S1131950089585E090E00895CF92DF92EF92FF9290
S11319600F931F93CFB6F894DD240E940903DC0182
S1131970CB0166E470E00E9437184BE0E42EF12CB2
S1131980E80EF91EF0924D02E0924C020E94890387
S113199000271127A80197010E944604CFBE1F917A
S11319A00F91FF90EF90DF90CF9008951F93CF9306
S11319B0DF938FB7F894C82FDD271C2F80911D016A
S11319C090911E010897C9F489E00E94540683E0AF
S11319D00E946407C09A81E090E090931E01809376
S11319E01D018FB7F894992723E0209317018FBF27
S11319F084E00E943D01CFBF30C0C0988091500266
S1131A00882311F085E001C084E00E94540683FD20
S1131A1009C080E00E94540683FF04C085E090E082
S1131A2020E003C083E090E021E090931E018093C6
S1131A301D01C09A1FBF222341F01092270183E0A9
S1131A400E9464070E94AC0C08C00E94890320E431
S1131A5031E040E050E00E944604DF91CF911F91B5
S1131A600895EF92FF920F931F93CF93DF938B010F
S1131A708091A5019091A60186FF40C18F7B8F3391
S1131A8009F08EC1C0912301D09124015881509353
S1131A90510180914F01909150018530910509F4D5
S1131AA043C08630910509F48AC0029709F01FC12A
S1131AB085E090E09093500180934F0140913E0166
S1131AC0852F99270196242F3327281739074CF19E
S1131AD0B79906C00E9904C0451B415040933E017E
S1131AE0409151014A32E8F44423A1F0BE016F5FF2
S1131AF07F4F483018F047E050E007C086E090E0A0
S1131B009093500180934F01552780E090E00E940C
S1131B10DE0146C110925901C09A84E00E94640714
S1131B20E3C00E94E7073CC186E090E09093500137
S1131B3080934F0180915C01882309F439C080911E
S1131B40DC018823A9F5898185FF32C08F814E810C
S1131B502FB7F89433276091A1017091A2012FBF90
S1131B609927982F88275527842B952B8617970715
S1131B7059F08F812E819927982F88273327822B1C
S1131B80932B8F5F9F4FA1F489818770813081F4FB
S1131B90C09AC0988AE00E945406C09AC0984091A6
S1131BA0510147502896BE018FE30E946F06F8C08A
S1131BB040915101475055272896BE01A6CFC09A9F
S1131BC080915501882339F484E00E946407809150
S1131BD05501882311F0B7990AC00E9B08C0909153
S1131BE04002992321F0809151018B3038F4809187
S1131BF02301909124010E94FA023DC0913001F525
S1131C00E0914402FF27EE0FFF1FEE0FFF1FE45188
S1131C10FE4F2081318142815381E0912301F09173
S1131C20240121ABBB27A52F942F832F80ABCA019E
S1131C30AA27BB2787A7252F33274427552726A75D
S1131C40809144029927019668E070E00E944B1845
S1131C508093440280914002815080934002882303
S1131C6051F080912301909124010E94FA02109274
S1131C7044021092400280915101FE01E80FF11DCF
S1131C80808187FF31C0012B79F169816770E09110
S1131C902301F0912401623019F5A0915D01B09106
S1131CA05E01109709F180911D0190911E01079723
S1131CB0D9F4ED019B8183819817B1F487B78F7EA6
S1131CC087BF908181E08CA7E90FF11D8291319645
S1131CD088A780818F7789A780E00E94BF0A04C00B
S1131CE0613011F48BE02AC00E94B20759C01092EF
S1131CF05901C09A84E00E94640752C08E3309F0EF
S1131D004FC0C09A80911D0190911E010897C9F49B
S1131D10C09889E00E945406C09A83E00E94640738
S1131D2081E090E090931E0180931D018FB7F89499
S1131D30992723E0209317018FBF84E00E943D017F
S1131D402FC080915002882349F484E090E090935E
S1131D501E0180931D010E94D60C22C083E00E94C4
S1131D60640783E090E090931E0180931D010E941C
S1131D700903DC01CB0166E371E00E9437185BE0E4
S1131D80E52EF12CE80EF91EF0923901E0923801AB
S1131D900E94890300271127A80197010E94460485
S1131DA0DF91CF911F910F91FF90EF9008951F92B3
S1131DB00F920FB60F9211242F933F934F935F937B
S1131DC06F937F938F939F93AF93BF93EF93FF93FF
S1131DD02FB1E091D001F091D101309739F0809189
S1131DE0AF019091B001E80FF91F20838091AF01FA
S1131DF09091B00101969093B0018093AF0180E07F
S1131E000E94E50040912501509126018091AF0187
S1131E109091B0018417950718F40E9470011CC0BA
S1131E206091D0017091D10180914A0290914B024E
S1131E301092D1011092D00110924B0210924A02DA
S1131E4010922601109225011092B0011092AF0158
S1131E502FB120E00E94310DFF91EF91BF91AF911E
S1131E609F918F917F916F915F914F913F912F91AE
S1131E700F900FBE0F901F901895AF92BF92CF9204
S1131E80DF92EF92FF920F931F93CF93DF93CDB71F
S1131E90DEB7A8970FB6F894DEBF0FBECDBF87306C
S1131EA009F441C1883098F4833009F4C2C0843005
S1131EB038F4813009F450C0823008F067C022C081
S1131EC0853009F40DC1863008F026C1B8C08B30C6
S1131ED009F455C28C3038F4893009F419C28A30B7
S1131EE008F039C258C18D3009F445C48D3008F466
S1131EF00DC48E3009F0BDC492C42FBFBAC4C6014C
S1131F00B50136C480914502882309F4B2C440E087
S1131F1051E090914502852F8923C1F0E42FFF27DA
S1131F20EE0FFF1FEF54FE4F20813181118210828A
S1131F30852F8095982390934502442339F42D5698
S1131F40314009F093C41092A90190C44F5F483006
S1131F5008F08FC4550FDDCF10910201E12FFF2748
S1131F60EE0FFF1FEF54FE4FE080F18011821082CC
S1131F700E94AC09112309F07CC45DE6E51651E02A
S1131F80F50609F076C41092A90173C40FB7F8944A
S1131F90112781E00E94610461E0E62EF12CF092A9
S1131FA01E01E0921D0110921F0110923F01109238
S1131FB053010FBF0FB7F89411270E94EE02F0925D
S1131FC05001E0924F011092590189B78F7B89BF6C
S1131FD080E488BF8AB780628ABF8AB78F7E8ABF4F
S1131FE089B7806489BF0FBF8FB7F894082F112772
S1131FF08091180190911901049719F483E00E94CB
S113200054060FBF0FB7F8941127C09A80E00E94BE
S113201064070FBF8FB7F894992722E02093D80163
S11320208FBF48EE53E060E070E081E00E942D0233
S113203020C48FB7F89499271092D80172C08FB733
S1132040F8949927F09017018FBF63E081E00E9414
S1132050CE00882359F10FB7F894112710921E016E
S113206010921D0187B78F7E87BF87B78F7D87BF8B
S113207083E00E946407C09A0FBF0FB7F89411273A
S11320801092500110924F010E94EE02C09A89B73B
S11320908F7B89BF0FBF1092190110921801DE982F
S11320A0DD98DE9A83E00E943D0107C08FB7F89463
S11320B0992722E02093D8018FBF0091AC011091A1
S11320C0AD010E94FF018091460290914702892B45
S11320D009F0CFC38FEF80930A014F2DB801BDC320
S11320E08FB7F894282F3327122F80914E0288231C
S11320F009F003CF81E080934E0280911801909102
S11321001901049721F481E00E94740503C086E05C
S11321100E943D011FBFADC38FB7F8949927109259
S11321204E028FBFA6C38FB7F894282F3327809110
S11321301A01882309F0E1CE2FBF80B3992756E016
S1132140969587955A95E1F7182F11709091A301F0
S11321508091A4018917D9F01917C9F484E090E09B
S113216090931901809318018FB7F894992721E06F
S113217020931A018FBF60E070E08DE10E94F807A0
S11321800E941C06C09AC09882E00E943D011093F0
S1132190A40187E06DC08FB7F894992710910301CB
S11321A08FBF123009F467C0133030F4112359F093
S11321B0113009F05EC348C0133009F476C01430FE
S11321C009F057C3A2C0C0988FB7F894082F1127FD
S11321D080911801909119010297A1F583E090E094
S11321E0909319018093180168E170E08DE10E94D9
S11321F0F80781E08093A30110921A0180B3992714
S113220046E0969587954A95E1F7817090708093A2
S1132210A40187E00E943D0181E00E9454066FE71B
S113222072E08CE10E94F8070E9459080E941F087E
S113223066E57AE287E10E94F8076FEF70E885E1CE
S11322400E94F8070FBF15C3C09886E00E94540689
S11322500E9459080E941F080E941C06C09AC09838
S113226083E00E945406C09A81E00E94640786E0DD
S11322700E943D01FEC2C0988FB7F894082F112721
S113228060E080E00E94CE00882311F00FBF0AC0F6
S11322900FBF83E50E94640180E00E94640180E036
S11322A00E946401C09A82E02DC08FB7F8949927E8
S11322B020911D018FBF243039F0283041F02230A5
S11322C001F50E946A08D5C20E94D60CD2C2C098F9
S11322D089E00E945406C09A83E00E9464078FB785
S11322E0F894992721E030E030931E0120931D01DA
S11322F08FBF8FB7F8949927109317018FBF84E08D
S1132300B7CF83E00E946407B4C20E94A106B1C2A1
S11323100FB7F8941127409125015091260160913F
S1132320D0017091D10180914A0290914B02109298
S1132330D1011092D00110924B0210924A021092D5
S11323402601109225011092B0011092AF0120E0F5
S11323500E94310D77CF2FB7F8943327809156011F
S11323608093060182E080931C012FBF80910601B7
S1132370882309F07EC2B89AC09888E079CFA091EA
S11323802301B0912401DC909D012D0D311DF90133
S11323908081881F8827881FFD0183A7F901808118
S11323A08F77FD0181A721503040F9018081FD0123
S11323B080A7A0912301B0912401FD0132818FB740
S11323C0F8949927209154018FBF222309F490C0D7
S11323D0832F992796958795969587958370907006
S11323E08230910541F5878146812FB7F8943327D0
S11323F06091A1017091A2012FBF9927982F88277E
S11324005527842B952B8617970719F481E090E0C4
S11324106CC0FD018781268140E050E09927982F08
S113242088273327822B932B8F5F9F4F11F441E032
S113243050E0CA015AC0039709F05FC19E012F5FA3
S11324403F4F4DED51E088E0FA010190AF01F901F1
S113245001929F018150C1F79E012F5D3F4FAE0154
S11324604F5F5F4F88E0FA010190AF01F9010192DB
S11324709F018150C1F79E01275F3F4FAE014F5D21
S11324805F4F88E0FA010190AF01F90101929F01C9
S11324908150C1F79E012F5E3F4FAE01475F5F4FF2
S11324A088E0FA010190AF01F90101929F01815086
S11324B0C1F79E01275E3F4FAE014F5E5F4F88E03C
S11324C0FA010190AF01F90101929F018150C1F716
S11324D048E050E0BE01675E7F4FCD0106960E9442
S11324E0B418892B09F009C103C0882309F405C174
S11324F0FCE0FD1508F001C1E0902301F0902401F7
S1132500F7012281822F992716E0969587951A95CF
S1132510E1F7039719F468E070E002C062E070E04C
S1132520822F9927969587959695879583709070B5
S1132530039719F488E090E002C082E090E026E07E
S113254030E0E20EF31E40E050E020E030E0F7011E
S1132550E80FF91F8AEF9FEFE80EF91E05C081917D
S1132560480F511D2F5F3F4F26173707C4F3F7015C
S113257063818FEF809348028FB7F894782F20E01F
S113258030E0ECE2F1E0808191818417950731F429
S11325908281861709F49CC0209348022F5F3F4F25
S11325A033962430310579F77FBF909148023FB7C5
S11325B0F8949F3F21F080912001891799F420918C
S11325C02001822F9927FC01EE0FFF1FE80FF91F4E
S11325D0E45DFE4F5183408362832F5F2370209319
S11325E020010CC0892F9927FC01EE0FFF1FE80F73
S11325F0F91FE45DFE4F518340836283832F992743
S11326008FBF0FB7F8941127C7010E947000FC0117
S113261090810FBFF70183A5882309F46AC09F3313
S113262009F067C0878146812FB7F89433276091FA
S11326300701709108012FBF9927982F88275527E4
S1132640842B952B8617970761F08781268199271C
S1132650982F88273327822B932B8F5F9F4F09F066
S113266048C0F7018385863009F043C0F4E1DF16E2
S113267009F03FC00091000110910101F701848528
S11326800130110539F58823A1F58585268599271B
S1132690982F88273327822B932BFC01E35FFE4F6F
S11326A021E0208300937B0110927A010093790149
S11326B080937D01292F332720937C0147E06DE629
S11326C071E00E94ED098823A1F40093A90111C0CF
S11326D07FBF0FC0813069F4035F1E4F82E0F801B1
S11326E080832FB7F89433278BB394E089278BBB6F
S11326F02FBFF0922401E09223018FB7F894992719
S1132700109259018FBF0E94B207B3C08091520149
S1132710882361F52091E8013091E9014091EA01B3
S11327205091EB01EFB7F894FF276091D3017091BA
S1132730D4018091D5019091D601E0903A01F090B6
S11327403B0100913C0110913D016E0D7F1D801FE6
S1132750911FEFBF2093E8013093E9014093EA0110
S11327605093EB01109252010E94D4020E9406027F
S11327700E94300A7EC00E9406025B016C018FB782
S1132780F89499271092AE018FBF8FEFE82E8FEF48
S1132790F82E8FEF082F8FE7182F60E0E5EBF1E0BC
S11327A0808581FF1CC080819181A281B381A601B3
S11327B09501281B390B4A0B5B0BDA01C9012481F3
S11327C0358146815781281B390B4A0B5B0B2E152B
S11327D03F05400751071CF479018A0161E03996ED
S11327E031E0E03DF307E1F6662309F442C01E142C
S11327F01F04100611060CF082CBE092E801F0925F
S1132800E9010093EA011093EB0181E08093520106
S1132810A8019701C601B5010E94D4022AC0909173
S1132820630180910A01981721F190930A01992379
S1132830C9F400912101109122016091AA01C801FB
S11328400E94B008482F5527442399F08FEF8093B6
S11328500A016091210170912201F80183850E948F
S1132860D20907C08FEF80930A0103C0550F41E0DE
S113287050CBA8960FB6F894DEBF0FBECDBFDF9144
S1132880CF911F910F91FF90EF90DF90CF90BF9069
S1132890AF900895809141028F3FB1F0282F3327E4
S11328A0F901E05CFE4F8081809341028F3F11F477
S11328B080934F028FEF80832F3F31F0822F0E944D
S11328C03D0F81E090E0089580E090E008951F932B
S11328D0CF93DF93CDB7DEB7E0970FB6F894DEBFA2
S11328E00FBECDBF1FB7F8944FE050E06FEF70E01C
S11328F080E491E00E94C1188FEF8093410280939D
S11329004F0281E08EBD88E080BF83E083BF8CB539
S11329109DB54AE72CB53DB52817390708F4415051
S1132920442311F0C901F6CF92B782B78917E9F3AE
S11329302CB53DB592B782B78917E9F38CB59DB52F
S1132940821B930B4096B5E096958795BA95E1F76F
S1132950909343028093420213BE83B78EBD8EB51B
S113296080BF12BE1DBC1CBC8FEF86BF86B7809390
S11329707C0080B7992787709070892BD1F7D29A01
S1132980D19AD09ADA9AD99AD89A15BA8FEF84BB89
S1132990D498DC981DBC1CBC87B7846087BF8EB5F7
S11329A0887F84608EBD0E944A148823E1F78FEFEC
S11329B080935701ECE2F1E08FEF9FEF91838083E6
S11329C01282339621E0E833F207C1F70E9409032B
S11329D06093E70180910001909101010196AA277B
S11329E0BB2780935F0190936001A0936101B09332
S11329F0620180B7886080BF8BE083BF86EE81BFB1
S1132A0087B7826087BF0E9451028CE092E0909366
S1132A102401809323018E98B89A8C988FEF809329
S1132A2068011092D7011092D8011092D901109226
S1132A30DA01B89AD69AD59A8FB7F8949927209143
S1132A400701309108018FBF3093A2012093A101A7
S1132A500E94740429A73AA74BA75CA76DA77EA779
S1132A608FA798ABDE019196FE01B99688E001909C
S1132A700D928150E1F7DE015196FE01B19688E096
S1132A8001900D928150E1F7DE015996FE01719695
S1132A9088E001900D928150E1F7ADEDB1E0FE01C7
S1132AA0799688E001900D928150E1F780910901B7
S1132AB0992790935B0180935A018FE18093D2010F
S1132AC08AE18093E5010E94740429A73AA74BA7E1
S1132AD05CA76DA77EA78FA798ABDE019196FE0138
S1132AE0B99688E001900D928150E1F7DE011196CC
S1132AF0FE01B19688E001900D928150E1F7DE016C
S1132B001996FE01319688E001900D928150E1F70B
S1132B10ADEDB1E0FE01399688E001900D9281504F
S1132B20E1F7ADEDB1E0FD0137969C9180818D9385
S1132B309083319781E0E03EF807B9F781E0809314
S1132B4054011092490280935C011092DC010E94AE
S1132B504A148823E1F7812F99278FBF78940E9424
S1132B60740C8FB7F894482F55274BC087B7992713
S1132B7083709070892B19F4E5E0F0E013C080B7FE
S1132B80992787709070892BD1F781B792B7891BE9
S1132B908C3030F082B7853F18F4E3E0F0E002C0F7
S1132BA0E2E0F0E087B7887BC1F480917D008B7F01
S1132BB0A1F46E9912C08AB190919A00892B887100
S1132BC061F48091740082FD08C0379B03C081E0EA
S1132BD090E005C085E090E002C080E090E025B779
S1132BE08E1708F4E82FFF27E457FF4FE491237E64
S1132BF02062E22BE5BF78948895F89485B78F7DA1
S1132C0085BF809141028F3F09F4B0CF282F33272D
S1132C10F901E05CFE4F8081809341028F3F11F403
S1132C2080934F028FEF80832F3F09F49FCF4FBFD4
S1132C30822F0E943D0F95CF78941F920F920FB66A
S1132C400F9211241F932F933F934F935F936F938E
S1132C507F938F939F93AF93BF93EF93FF9387B724
S1132C608F7E87BF78941FB7F89480916401909108
S1132C706501A0916601B09167010097A105B105B6
S1132C8009F051C080911D0190911E01853091057C
S1132C9061F18630910530F48330910549F0049751
S1132CA081F51AC087309105F1F0089751F514C0E9
S1132CB0869B0FC084E090E090931E0180931D01D9
S1132CC00E94890327E030E040E050E00E9446047F
S1132CD018C00E94AC0C15C00E94CC05882389F44E
S1132CE00E94D60C0EC080E00AC089E00E945406FF
S1132CF081E00E94610483E00E94640787E00E94EF
S1132D00BF0A8091180190911901019771F482E032
S1132D1090E09093190180931801DE98DE9A80E088
S1132D200E94740502C00E94A603812F99278FBFB9
S1132D30FF91EF91BF91AF919F918F917F916F918F
S1132D405F914F913F912F911F910F900FBE0F9064
S1132D501F901895ACE2B0E0E0EBF6E10C947D181E
S1132D60222E332E442E552E662E772E882E992E03
S1132D70FE013196A8E01192AA95E9F729823A82D8
S1132D804B825C826D827E828F829886FE013996A8
S1132D90B8E01192BA95E9F7A986BA86CB86DC86A3
S1132DA0ED86FE860F87188B89819A81AB81BC8161
S1132DB089A79AA7ABA7BCA77C018D018FEF9FEFD2
S1132DC0A0E0B0E0E822F9220A231B2389A59AA5F2
S1132DD0ABA5BCA51D014424552489859A85AB85E2
S1132DE0BC858DA39EA3AFA3B8A75C016D018FEF33
S1132DF09FEFA0E0B0E0A822B922CA22DB228DA175
S1132E009EA1AFA1B8A53D0188249924C801B701AA
S1132E10A60195010E945E1869A37AA38BA39CA3C3
S1132E20C801B701A40193010E945E187B018C01C3
S1132E30C201B101A60195010E945E185B016C01FB
S1132E40C201B101A40193010E945E183B014C012F
S1132E50EA0CFB1C0C1D1D1D89A19AA1ABA1BCA1F0
S1132E609D01442755272E0D3F1D401F511F2A1534
S1132E703B054C055D0540F480E090E0A1E0B0E046
S1132E80680E791E8A1E9B1ECA01AA27BB27860DBF
S1132E90971DA81DB91D8D8F9E8FAF8FB8A3A90153
S1132EA03327222789A19AA1ABA1BCA1A070B0703D
S1132EB0280F391F4A1F5B1F298F3A8F4B8F5C8F56
S1132EC0A98CBA8CCB8CDC8CED8CFE8C0F8D18A16C
S1132ED0FE01719698E011929A95E9F7ED8AFE8ABF
S1132EE00F8B188F2D813E814F8158856DA17EA156
S1132EF08FA198A50E945E183B014C012D853E854B
S1132F004F85588969A57AA58BA59CA50E945E1852
S1132F102D893E894F89588D260F371F481F591F09
S1132F20260D371D481D591D2D8B3E8B4F8B588FF9
S1132F306D887E888F88988C2A2D3B2D4C2D5D2D95
S1132F40662D772D882D992DE2E1AC960C94991875
S1132F50A0E1B0E0EEEAF7E10C947D18222E332EC6
S1132F60442E552E662E772E882E992E002309F492
S1132F7066C088E0FE01319611928A95E9F72983AB
S1132F803A834B835C836D837E838F829887E0E2F0
S1132F90E01B1E16CCF52D813E814F815885602F94
S1132FA0772767FD7095DA01C901062E04C0B6952E
S1132FB0A795979587950A94D2F78D879E87AF87B3
S1132FC0B88B04C0220F331F441F551FEA95D2F754
S1132FD089819A81AB81BC8104C0B695A7959795E8
S1132FE087956A95D2F7282B392B4A2B5B2B298797
S1132FF03A874B875C8729843A844B845C846D844C
S11330007E848F8498881BC01D861E861F86188A1E
S11330102E2F332727FD3095309521953F4F8D81F5
S11330209E81AF81B88504C0B695A795979587957D
S11330302A95D2F789879A87AB87BC87DCCF222D64
S1133040332D442D552D662D772D882D992DE2E1B4
S113305060960C949918991B79E004C0991F9617EF
S113306008F0961B881F7A95C9F780950895AA1BC6
S1133070BB1B51E107C0AA1FBB1FA617B70710F05F
S1133080A61BB70B881F991F5A95A9F78095909591
S1133090BC01CD01089597FB092E07260AD077FDC0
S11330A004D0E5DF06D000201AF4709561957F4FB7
S11330B00895F6F7909581959F4F0895629FD001EA
S11330C0739FF001829FE00DF11D649FE00DF11DDF
S11330D0929FF00D839FF00D749FF00D659FF00D8E
S11330E09927729FB00DE11DF91F639FB00DE11D7B
S11330F0F91FBD01CF01112408952F923F924F92E1
S11331005F926F927F928F929F92AF92BF92CF9273
S1133110DF92EF92FF920F931F93CF93DF93CDB77C
S1133120DEB7CA1BDB0B0FB6F894DEBF0FBECDBFF4
S113313009942A88398848885F846E847D848C84C5
S11331409B84AA84B984C884DF80EE80FD800C81CE
S11331501B81AA81B981CE0FD11D0FB6F894DEBFB1
S11331600FBECDBFED010895FB01DC0104C08D91BC
S11331700190801921F441505040C8F7881B990BE5
S11331800895DC0101C06D9341505040E0F708956B
S1053190FFCF6B
S1113192010001FFFFFFFF010022FFFFFF000D
S9030000FC
